{
  "_format": "hh-sol-artifact-1",
  "contractName": "Pact",
  "sourceName": "contracts/Pact.sol",
  "abi": [
    {
      "inputs": [
        {
          "internalType": "address",
          "name": "ownerAddress",
          "type": "address"
        },
        {
          "internalType": "uint256",
          "name": "region",
          "type": "uint256"
        },
        {
          "internalType": "uint256",
          "name": "reward",
          "type": "uint256"
        }
      ],
      "stateMutability": "nonpayable",
      "type": "constructor"
    },
    {
      "anonymous": false,
      "inputs": [
        {
          "indexed": false,
          "internalType": "address",
          "name": "user",
          "type": "address"
        },
        {
          "indexed": false,
          "internalType": "bool",
          "name": "compliant",
          "type": "bool"
        }
      ],
      "name": "CalculatingUserCompliance",
      "type": "event"
    },
    {
      "anonymous": false,
      "inputs": [
        {
          "indexed": true,
          "internalType": "bytes32",
          "name": "id",
          "type": "bytes32"
        }
      ],
      "name": "ChainlinkCancelled",
      "type": "event"
    },
    {
      "anonymous": false,
      "inputs": [
        {
          "indexed": true,
          "internalType": "bytes32",
          "name": "id",
          "type": "bytes32"
        }
      ],
      "name": "ChainlinkFulfilled",
      "type": "event"
    },
    {
      "anonymous": false,
      "inputs": [
        {
          "indexed": true,
          "internalType": "bytes32",
          "name": "id",
          "type": "bytes32"
        }
      ],
      "name": "ChainlinkRequested",
      "type": "event"
    },
    {
      "anonymous": false,
      "inputs": [
        {
          "indexed": true,
          "internalType": "address",
          "name": "previousOwner",
          "type": "address"
        },
        {
          "indexed": true,
          "internalType": "address",
          "name": "newOwner",
          "type": "address"
        }
      ],
      "name": "OwnershipTransferred",
      "type": "event"
    },
    {
      "anonymous": false,
      "inputs": [
        {
          "indexed": false,
          "internalType": "address",
          "name": "user",
          "type": "address"
        }
      ],
      "name": "PactJoined",
      "type": "event"
    },
    {
      "anonymous": false,
      "inputs": [],
      "name": "RequestingEIAData",
      "type": "event"
    },
    {
      "anonymous": false,
      "inputs": [
        {
          "indexed": false,
          "internalType": "uint256",
          "name": "numberOfNestRequests",
          "type": "uint256"
        }
      ],
      "name": "RequestingNestData",
      "type": "event"
    },
    {
      "inputs": [],
      "name": "EIARegion",
      "outputs": [
        {
          "internalType": "uint256",
          "name": "",
          "type": "uint256"
        }
      ],
      "stateMutability": "view",
      "type": "function"
    },
    {
      "inputs": [],
      "name": "TotalInterchangeThreshold",
      "outputs": [
        {
          "internalType": "int64",
          "name": "",
          "type": "int64"
        }
      ],
      "stateMutability": "view",
      "type": "function"
    },
    {
      "inputs": [
        {
          "internalType": "address",
          "name": "_address",
          "type": "address"
        }
      ],
      "name": "addressToString",
      "outputs": [
        {
          "internalType": "string",
          "name": "",
          "type": "string"
        }
      ],
      "stateMutability": "pure",
      "type": "function"
    },
    {
      "inputs": [
        {
          "internalType": "bytes32",
          "name": "_bytes32",
          "type": "bytes32"
        }
      ],
      "name": "bytes32ToString",
      "outputs": [
        {
          "internalType": "string",
          "name": "",
          "type": "string"
        }
      ],
      "stateMutability": "pure",
      "type": "function"
    },
    {
      "inputs": [],
      "name": "campaignAddress",
      "outputs": [
        {
          "internalType": "address",
          "name": "",
          "type": "address"
        }
      ],
      "stateMutability": "view",
      "type": "function"
    },
    {
      "inputs": [],
      "name": "campaignReward",
      "outputs": [
        {
          "internalType": "uint256",
          "name": "",
          "type": "uint256"
        }
      ],
      "stateMutability": "view",
      "type": "function"
    },
    {
      "inputs": [
        {
          "internalType": "uint256",
          "name": "_demandThreshold",
          "type": "uint256"
        },
        {
          "internalType": "uint256",
          "name": "_heatSetpoint",
          "type": "uint256"
        },
        {
          "internalType": "uint256",
          "name": "_coolSetpoint",
          "type": "uint256"
        }
      ],
      "name": "changeConditions",
      "outputs": [],
      "stateMutability": "nonpayable",
      "type": "function"
    },
    {
      "inputs": [
        {
          "internalType": "bytes",
          "name": "checkData",
          "type": "bytes"
        }
      ],
      "name": "checkUpkeep",
      "outputs": [
        {
          "internalType": "bool",
          "name": "",
          "type": "bool"
        },
        {
          "internalType": "bytes",
          "name": "",
          "type": "bytes"
        }
      ],
      "stateMutability": "view",
      "type": "function"
    },
    {
      "inputs": [],
      "name": "demandCoolSetpoint",
      "outputs": [
        {
          "internalType": "uint256",
          "name": "",
          "type": "uint256"
        }
      ],
      "stateMutability": "view",
      "type": "function"
    },
    {
      "inputs": [],
      "name": "demandHeatSetpoint",
      "outputs": [
        {
          "internalType": "uint256",
          "name": "",
          "type": "uint256"
        }
      ],
      "stateMutability": "view",
      "type": "function"
    },
    {
      "inputs": [],
      "name": "demandThreshold",
      "outputs": [
        {
          "internalType": "uint256",
          "name": "",
          "type": "uint256"
        }
      ],
      "stateMutability": "view",
      "type": "function"
    },
    {
      "inputs": [],
      "name": "disablePact",
      "outputs": [],
      "stateMutability": "nonpayable",
      "type": "function"
    },
    {
      "inputs": [],
      "name": "enablePact",
      "outputs": [],
      "stateMutability": "nonpayable",
      "type": "function"
    },
    {
      "inputs": [
        {
          "internalType": "bytes32",
          "name": "_requestId",
          "type": "bytes32"
        },
        {
          "internalType": "uint256",
          "name": "_demand",
          "type": "uint256"
        }
      ],
      "name": "fulfillEIA",
      "outputs": [],
      "stateMutability": "nonpayable",
      "type": "function"
    },
    {
      "inputs": [
        {
          "internalType": "bytes32",
          "name": "requestId",
          "type": "bytes32"
        },
        {
          "internalType": "bytes32",
          "name": "responseData",
          "type": "bytes32"
        }
      ],
      "name": "fulfillNestRequest",
      "outputs": [],
      "stateMutability": "nonpayable",
      "type": "function"
    },
    {
      "inputs": [
        {
          "internalType": "address",
          "name": "user",
          "type": "address"
        }
      ],
      "name": "getComplianceDataArray",
      "outputs": [
        {
          "internalType": "uint256[]",
          "name": "",
          "type": "uint256[]"
        }
      ],
      "stateMutability": "view",
      "type": "function"
    },
    {
      "inputs": [],
      "name": "getParticipants",
      "outputs": [
        {
          "internalType": "address[]",
          "name": "",
          "type": "address[]"
        }
      ],
      "stateMutability": "view",
      "type": "function"
    },
    {
      "inputs": [
        {
          "internalType": "address",
          "name": "user",
          "type": "address"
        }
      ],
      "name": "getTempDataArray",
      "outputs": [
        {
          "internalType": "uint256[]",
          "name": "",
          "type": "uint256[]"
        }
      ],
      "stateMutability": "view",
      "type": "function"
    },
    {
      "inputs": [],
      "name": "getTotalSavings",
      "outputs": [
        {
          "internalType": "uint256",
          "name": "",
          "type": "uint256"
        }
      ],
      "stateMutability": "nonpayable",
      "type": "function"
    },
    {
      "inputs": [],
      "name": "getTotalSavingsThisCycle",
      "outputs": [
        {
          "internalType": "uint256",
          "name": "",
          "type": "uint256"
        }
      ],
      "stateMutability": "nonpayable",
      "type": "function"
    },
    {
      "inputs": [
        {
          "internalType": "uint256",
          "name": "_region",
          "type": "uint256"
        }
      ],
      "name": "joinPact",
      "outputs": [],
      "stateMutability": "nonpayable",
      "type": "function"
    },
    {
      "inputs": [],
      "name": "lastBlockNumberEIA",
      "outputs": [
        {
          "internalType": "uint256",
          "name": "",
          "type": "uint256"
        }
      ],
      "stateMutability": "view",
      "type": "function"
    },
    {
      "inputs": [],
      "name": "lastBlockNumberKeeper",
      "outputs": [
        {
          "internalType": "uint256",
          "name": "",
          "type": "uint256"
        }
      ],
      "stateMutability": "view",
      "type": "function"
    },
    {
      "inputs": [],
      "name": "owner",
      "outputs": [
        {
          "internalType": "address",
          "name": "",
          "type": "address"
        }
      ],
      "stateMutability": "view",
      "type": "function"
    },
    {
      "inputs": [],
      "name": "pactState",
      "outputs": [
        {
          "internalType": "enum Pact.PactState",
          "name": "",
          "type": "uint8"
        }
      ],
      "stateMutability": "view",
      "type": "function"
    },
    {
      "inputs": [
        {
          "internalType": "uint256",
          "name": "",
          "type": "uint256"
        }
      ],
      "name": "participants",
      "outputs": [
        {
          "internalType": "address",
          "name": "",
          "type": "address"
        }
      ],
      "stateMutability": "view",
      "type": "function"
    },
    {
      "inputs": [
        {
          "internalType": "bytes",
          "name": "performData",
          "type": "bytes"
        }
      ],
      "name": "performUpkeep",
      "outputs": [],
      "stateMutability": "nonpayable",
      "type": "function"
    },
    {
      "inputs": [
        {
          "internalType": "address",
          "name": "user",
          "type": "address"
        }
      ],
      "name": "populateParticipant",
      "outputs": [],
      "stateMutability": "nonpayable",
      "type": "function"
    },
    {
      "inputs": [
        {
          "internalType": "uint256",
          "name": "",
          "type": "uint256"
        },
        {
          "internalType": "uint256",
          "name": "",
          "type": "uint256"
        }
      ],
      "name": "regionToDemandData",
      "outputs": [
        {
          "internalType": "uint256",
          "name": "",
          "type": "uint256"
        }
      ],
      "stateMutability": "view",
      "type": "function"
    },
    {
      "inputs": [],
      "name": "renounceOwnership",
      "outputs": [],
      "stateMutability": "nonpayable",
      "type": "function"
    },
    {
      "inputs": [
        {
          "internalType": "uint256",
          "name": "region_num",
          "type": "uint256"
        }
      ],
      "name": "requestDataEIA",
      "outputs": [
        {
          "internalType": "bytes32",
          "name": "requestId",
          "type": "bytes32"
        }
      ],
      "stateMutability": "nonpayable",
      "type": "function"
    },
    {
      "inputs": [
        {
          "internalType": "address",
          "name": "user",
          "type": "address"
        },
        {
          "internalType": "enum Pact.NestRequestType",
          "name": "requestType",
          "type": "uint8"
        },
        {
          "internalType": "uint8",
          "name": "rangeHeat",
          "type": "uint8"
        },
        {
          "internalType": "uint8",
          "name": "rangeCool",
          "type": "uint8"
        }
      ],
      "name": "requestGoogleNestData",
      "outputs": [
        {
          "internalType": "bytes32",
          "name": "requestId",
          "type": "bytes32"
        }
      ],
      "stateMutability": "nonpayable",
      "type": "function"
    },
    {
      "inputs": [],
      "name": "requestPayout",
      "outputs": [],
      "stateMutability": "nonpayable",
      "type": "function"
    },
    {
      "inputs": [],
      "name": "startNewCycle",
      "outputs": [],
      "stateMutability": "nonpayable",
      "type": "function"
    },
    {
      "inputs": [],
      "name": "startPact",
      "outputs": [],
      "stateMutability": "nonpayable",
      "type": "function"
    },
    {
      "inputs": [],
      "name": "startTimeStamp",
      "outputs": [
        {
          "internalType": "uint256",
          "name": "",
          "type": "uint256"
        }
      ],
      "stateMutability": "view",
      "type": "function"
    },
    {
      "inputs": [
        {
          "internalType": "string",
          "name": "s",
          "type": "string"
        }
      ],
      "name": "stringToUint",
      "outputs": [
        {
          "internalType": "uint256",
          "name": "result",
          "type": "uint256"
        }
      ],
      "stateMutability": "pure",
      "type": "function"
    },
    {
      "inputs": [],
      "name": "terminatePact",
      "outputs": [],
      "stateMutability": "nonpayable",
      "type": "function"
    },
    {
      "inputs": [
        {
          "internalType": "address",
          "name": "newOwner",
          "type": "address"
        }
      ],
      "name": "transferOwnership",
      "outputs": [],
      "stateMutability": "nonpayable",
      "type": "function"
    },
    {
      "inputs": [
        {
          "internalType": "address",
          "name": "",
          "type": "address"
        },
        {
          "internalType": "uint256",
          "name": "",
          "type": "uint256"
        }
      ],
      "name": "userAddressToComplianceData",
      "outputs": [
        {
          "internalType": "uint256",
          "name": "",
          "type": "uint256"
        }
      ],
      "stateMutability": "view",
      "type": "function"
    },
    {
      "inputs": [
        {
          "internalType": "address",
          "name": "",
          "type": "address"
        }
      ],
      "name": "userAddressToComplianceDataLength",
      "outputs": [
        {
          "internalType": "uint256",
          "name": "",
          "type": "uint256"
        }
      ],
      "stateMutability": "view",
      "type": "function"
    },
    {
      "inputs": [
        {
          "internalType": "address",
          "name": "",
          "type": "address"
        }
      ],
      "name": "userAddressToEnergyCountCycle",
      "outputs": [
        {
          "internalType": "uint256",
          "name": "",
          "type": "uint256"
        }
      ],
      "stateMutability": "view",
      "type": "function"
    },
    {
      "inputs": [
        {
          "internalType": "address",
          "name": "",
          "type": "address"
        },
        {
          "internalType": "uint256",
          "name": "",
          "type": "uint256"
        }
      ],
      "name": "userAddressToNestData",
      "outputs": [
        {
          "internalType": "uint256",
          "name": "mode",
          "type": "uint256"
        },
        {
          "internalType": "uint256",
          "name": "temperature",
          "type": "uint256"
        },
        {
          "internalType": "uint256",
          "name": "heatSetpoint",
          "type": "uint256"
        },
        {
          "internalType": "uint256",
          "name": "coolSetpoint",
          "type": "uint256"
        }
      ],
      "stateMutability": "view",
      "type": "function"
    },
    {
      "inputs": [
        {
          "internalType": "address",
          "name": "",
          "type": "address"
        }
      ],
      "name": "userAddressToPactState",
      "outputs": [
        {
          "internalType": "enum Pact.PactState",
          "name": "",
          "type": "uint8"
        }
      ],
      "stateMutability": "view",
      "type": "function"
    },
    {
      "inputs": [
        {
          "internalType": "address",
          "name": "",
          "type": "address"
        },
        {
          "internalType": "uint256",
          "name": "",
          "type": "uint256"
        }
      ],
      "name": "userAddressToTempData",
      "outputs": [
        {
          "internalType": "uint256",
          "name": "",
          "type": "uint256"
        }
      ],
      "stateMutability": "view",
      "type": "function"
    }
  ],
  "bytecode": "0x608060405260016005908155601a80546001600160a01b031990811673a94fcd7aaed52a5d8a525319b16b4d3296a02f6a179091557f6663313733666339326435373438636338643736636562323164343432613536601b5567016345785d8a0000601c819055601d805490921673c57b33452b4f7bb189bb5afae9cc4aba1f7a4fd8179091557f6435323730643163333131393431643062303862656164323166656137373437601e55601f5560b460205560215560006022556023805467fffffffffffffe0c6001600160401b0319909116179055348015620000e357600080fd5b5060405162003e5338038062003e53833981016040819052620001069162000280565b6200011a620001146200021e565b62000222565b6022829055600b80546001600160a01b0319166001600160a01b038516179055600c8190556040516200014d9062000272565b604051809103906000f0801580156200016a573d6000803e3d6000fd5b5060238054600160401b600160e01b031916680100000000000000006001600160a01b039384168102919091179182905560405163f2fde38b60e01b815291049091169063f2fde38b90620001c4908690600401620002c3565b600060405180830381600087803b158015620001df57600080fd5b505af1158015620001f4573d6000803e3d6000fd5b505042600d55505043600e819055600f55505061753060085550603c6009556050600a55620002d7565b3390565b600080546001600160a01b038381166001600160a01b0319831681178455604051919092169283917f8be0079c531659141344cd1fd0a4f28419497f9722a3daafe3b4186f6b6457e09190a35050565b61069f80620037b483390190565b60008060006060848603121562000295578283fd5b83516001600160a01b0381168114620002ac578384fd5b602085015160409095015190969495509392505050565b6001600160a01b0391909116815260200190565b6134cd80620002e76000396000f3fe608060405234801561001057600080fd5b506004361061027f5760003560e01c806372d040521161015c578063b22613ef116100ce578063eb4d604711610087578063eb4d60471461051c578063f2fde38b1461052f578063f38d00f014610542578063f60884b11461054a578063f7a9ce1a14610552578063fc929990146104345761027f565b8063b22613ef146104bb578063b47b1874146104c3578063d12b45b7146104e6578063d5c667ff146104f9578063df14806414610501578063e6888860146105145761027f565b80638d222cbb116101205780638d222cbb1461046a5780638da5cb5b1461047257806391cd403a1461047a5780639201de5514610482578063ae9bd36314610495578063b07e0330146104a85761027f565b806372d040521461042c5780637f2736d114610434578063827e238b1461043c5780638501b8c6146104445780638c4ec46f146104575761027f565b806342445a62116101f55780635aa68ac0116101b95780635aa68ac0146103be5780635e57966d146103d357806365058f4c146103f35780636e04ff0d146103fb5780636fe9ca4c1461041c578063715018a6146104245761027f565b806342445a62146103735780634585e33b146103865780634da44d1d146103995780634f9b670e146103a15780635074df8b146103b65761027f565b80632642f18b116102475780632642f18b146102f05780632e9b02ef146103105780632fc276c01461032357806335c1d3491461033857806336ab85221461034b5780633b2729fd1461035e5761027f565b8063014365741461028457806306683bc3146102ad5780630d35cea1146102b557806311765b27146102c85780631bd95155146102dd575b600080fd5b610297610292366004612841565b610565565b6040516102a49190612a5f565b60405180910390f35b610297610596565b6102976102c33660046127cf565b61059c565b6102d06105ae565b6040516102a49190612a8a565b6102976102eb366004612930565b6105bd565b6103036102fe3660046127cf565b61064b565b6040516102a49190612b7a565b61029761031e3660046127cf565b6106b8565b61032b6106ca565b6040516102a49190612bf5565b6102d061034636600461288a565b6106d3565b610297610359366004612841565b6106fd565b61037161036c36600461288a565b610719565b005b6102976103813660046127e9565b6107af565b6103716103943660046128c3565b610a86565b610371610b24565b6103a9610b47565b6040516102a49190612bcd565b610297610b50565b6103c6610b56565b6040516102a49190612b2d565b6103e66103e13660046127cf565b610bb8565b6040516102a49190612c03565b610371610e13565b61040e6104093660046128c3565b610e15565b6040516102a4929190612bb2565b610297610e46565b610371610e4c565b610297610e9e565b610371610ea4565b610297610ee3565b6103036104523660046127cf565b610ef6565b6102976104653660046128a2565b610f60565b610297610f7c565b6102d0610f82565b610297610f91565b6103e661049036600461288a565b610f97565b6103716104a33660046127cf565b610fc0565b6103716104b63660046128a2565b6111e4565b6102976112a8565b6104d66104d1366004612841565b6112ae565b6040516102a49493929190612d74565b6103a96104f43660046127cf565b6112f4565b610371611309565b61037161050f3660046129e9565b611326565b610297611334565b61029761052a36600461288a565b611339565b61037161053d3660046127cf565b6117cd565b61029761183e565b610371611844565b6103716105603660046128a2565b61192f565b6015602052816000526040600020818154811061058157600080fd5b90600052602060002001600091509150505481565b60095481565b60166020526000908152604090205481565b600b546001600160a01b031681565b600081815b81518110156106445760008282815181106105ed57634e487b7160e01b600052603260045260246000fd5b016020015160f81c905060308110801590610609575060398111155b1561063157610619603082612eda565b61062485600a612ebb565b61062e9190612d8f565b93505b508061063c81612ef1565b9150506105c2565b5050919050565b6001600160a01b0381166000908152601260209081526040918290208054835181840281018401909452808452606093928301828280156106ab57602002820191906000526020600020905b815481526020019060010190808311610697575b505050505090505b919050565b60176020526000908152604090205481565b60235460070b81565b601981815481106106e357600080fd5b6000918252602090912001546001600160a01b0316905081565b6012602052816000526040600020818154811061058157600080fd5b6019805460018181019092557f944998273e477b495144fb8794c914197f3ccb46be2900f4698fd0ef743c96950180546001600160a01b031916339081179091556000908152601360205260409020805460ff1916828002179055507f67a3639193b2dde3ae6b963e65d1cd39066cf0402df9605acf282ccf5a7a27bb336040516107a49190612a8a565b60405180910390a150565b6000806107c6601b543063f7a9ce1a60e01b611e18565b905060008560028111156107ea57634e487b7160e01b600052602160045260246000fd5b14156108445761083f6040518060400160405280600681526020016530b1ba34b7b760d11b81525060405180604001604052806004815260200163696e666f60e01b81525083611e3d9092919063ffffffff16565b6109d4565b600185600281111561086657634e487b7160e01b600052602160045260246000fd5b141561095e576108be6040518060400160405280600681526020016530b1ba34b7b760d11b8152506040518060400160405280600781526020016618dbdb5b585b9960ca1b81525083611e3d9092919063ffffffff16565b61090e604051806040016040528060098152602001681c985b99d95219585d60ba1b81525060405180604001604052806002815260200161036360f41b81525083611e3d9092919063ffffffff16565b61083f604051806040016040528060098152602001681c985b99d950dbdbdb60ba1b81525060405180604001604052806002815260200161038360f41b81525083611e3d9092919063ffffffff16565b600285600281111561098057634e487b7160e01b600052602160045260246000fd5b14156109d4576109d46040518060400160405280600681526020016530b1ba34b7b760d11b8152506040518060400160405280600381526020016237b33360e91b81525083611e3d9092919063ffffffff16565b610a05604051806040016040528060048152602001633ab9b2b960e11b8152506109fd88610bb8565b839190611e3d565b604080518082019091526009815268074696d657374616d760bc1b6020820152610a3190829042611e5b565b601a54601c54600091610a51916001600160a01b03909116908490611e79565b600081815260186020526040902080546001600160a01b038a166001600160a01b031990911617905592505050949350505050565b6019546040517f7fedc13b988790f9737f2969451dc1867782dc90f901ee940ba2e3920259e82191610ab791612a5f565b60405180910390a160005b601954811015610b1f57610b0c60198281548110610af057634e487b7160e01b600052603260045260246000fd5b60009182526020822001546001600160a01b03169080806107af565b5080610b1781612ef1565b915050610ac2565b505050565b33600090815260136020526040902080546001919060ff191682805b0217905550565b60075460ff1681565b600a5481565b60606019805480602002602001604051908101604052809291908181526020018280548015610bae57602002820191906000526020600020905b81546001600160a01b03168152600190910190602001808311610b90575b5050505050905090565b604080518082018252601081526f181899199a1a9b1b9c1cb0b131b232b360811b60208201528151602a80825260608281019094526001600160a01b0385169291600091602082018180368337019050509050600360fc1b81600081518110610c3157634e487b7160e01b600052603260045260246000fd5b60200101906001600160f81b031916908160001a905350600f60fb1b81600181518110610c6e57634e487b7160e01b600052603260045260246000fd5b60200101906001600160f81b031916908160001a90535060005b6014811015610e0a5782600485610ca084600c612d8f565b60208110610cbe57634e487b7160e01b600052603260045260246000fd5b1a60f81b6001600160f81b031916901c60f81c60ff1681518110610cf257634e487b7160e01b600052603260045260246000fd5b01602001516001600160f81b03191682610d0d836002612ebb565b610d18906002612d8f565b81518110610d3657634e487b7160e01b600052603260045260246000fd5b60200101906001600160f81b031916908160001a9053508284610d5a83600c612d8f565b60208110610d7857634e487b7160e01b600052603260045260246000fd5b825191901a600f16908110610d9d57634e487b7160e01b600052603260045260246000fd5b01602001516001600160f81b03191682610db8836002612ebb565b610dc3906003612d8f565b81518110610de157634e487b7160e01b600052603260045260246000fd5b60200101906001600160f81b031916908160001a90535080610e0281612ef1565b915050610c88565b50949350505050565b565b60006060602154600f5443610e2a9190612eda565b1160405180602001604052806000815250915091509250929050565b600c5481565b610e54611e98565b6001600160a01b0316610e65610f82565b6001600160a01b031614610e945760405162461bcd60e51b8152600401610e8b90612cf7565b60405180910390fd5b610e136000611e9c565b600f5481565b610eac611e98565b6001600160a01b0316610ebd610f82565b6001600160a01b031614610e135760405162461bcd60e51b8152600401610e8b90612cf7565b3360009081526017602052604090205490565b6001600160a01b0381166000908152601560209081526040918290208054835181840281018401909452808452606093928301828280156106ab57602002820191906000526020600020908154815260200190600101908083116106975750505050509050919050565b6014602052816000526040600020818154811061058157600080fd5b60085481565b6000546001600160a01b031690565b600e5481565b606081604051602001610faa9190612a5f565b6040516020818303038152906040529050919050565b6019805460018082019092557f944998273e477b495144fb8794c914197f3ccb46be2900f4698fd0ef743c96950180546001600160a01b0319166001600160a01b0384169081179091556000908152601360205260408120805460ff19169092179091555b601e811015611085576000805260146020526000805160206130eb833981519152611051826064612ebb565b61105d90614e20612d8f565b815460018101835560009283526020909220909101558061107d81612ef1565b915050611025565b506001600160a01b0381166000908152601760205260408120601490555b601e811015611120576001600160a01b03821660009081526015602052604090206110cf600283612f0c565b815460018101835560009283526020808420909101919091556001600160a01b0384168252601690526040812080549161110883612ef1565b9190505550808061111890612ef1565b9150506110a3565b50600160376050603c60005b601e8110156111dc576001600160a01b038616600081815260116020908152604080832081516080810183528a81528084018a81528184018a8152606083018a81528454600181810187559589528789209451600490910290940193845591519383019390935591516002820155905160039091015592825260129052206111b48286612d8f565b81546001810183556000928352602090922090910155806111d481612ef1565b91505061112c565b505050505050565b60008281526006602052604090205482906001600160a01b0316331461121c5760405162461bcd60e51b8152600401610e8b90612d2c565b60008181526006602052604080822080546001600160a01b03191690555182917f7cc135e0cebb02c3480ae5d74d377283180a2601f8f644edf7987b009316c63a91a25060146020526000805160206130eb83398151915280546001810182556000919091527f48766cb3f34ad585292aaf368933da0e7d4f7943e1217f2b8e495b4b5a119b30015550565b60225481565b601160205281600052604060002081815481106112ca57600080fd5b60009182526020909120600490910201805460018201546002830154600390930154919450925084565b60136020526000908152604090205460ff1681565b336000908152601360205260408120805460ff1916600183610b40565b600892909255600955600a55565b600090565b600080611350601e543063b07e033060e01b611e18565b90508261139c576113976040518060400160405280600381526020016219d95d60ea1b8152506040518060a001604052806065815260200161323b60659139839190611e3d565b611751565b82600114156113e5576113976040518060400160405280600381526020016219d95d60ea1b8152506040518060a001604052806065815260200161323b60659139839190611e3d565b826002141561142e576113976040518060400160405280600381526020016219d95d60ea1b8152506040518060a00160405280606581526020016133cf60659139839190611e3d565b8260031415611477576113976040518060400160405280600381526020016219d95d60ea1b8152506040518060a001604052806066815260200161302160669139839190611e3d565b82600414156114c0576113976040518060400160405280600381526020016219d95d60ea1b8152506040518060a001604052806065815260200161310b60659139839190611e3d565b8260051415611509576113976040518060400160405280600381526020016219d95d60ea1b8152506040518060a001604052806066815260200161336960669139839190611e3d565b8260061415611552576113976040518060400160405280600381526020016219d95d60ea1b8152506040518060a001604052806066815260200161317060669139839190611e3d565b826007141561159b576113976040518060400160405280600381526020016219d95d60ea1b8152506040518060a0016040528060648152602001612fbd60649139839190611e3d565b82600814156115e4576113976040518060400160405280600381526020016219d95d60ea1b8152506040518060a0016040528060648152602001612f5960649139839190611e3d565b826009141561162d576113976040518060400160405280600381526020016219d95d60ea1b8152506040518060a00160405280606481526020016132a060649139839190611e3d565b82600a1415611676576113976040518060400160405280600381526020016219d95d60ea1b8152506040518060a001604052806064815260200161343460649139839190611e3d565b82600b14156116bf576113976040518060400160405280600381526020016219d95d60ea1b8152506040518060a001604052806064815260200161308760649139839190611e3d565b82600c1415611708576113976040518060400160405280600381526020016219d95d60ea1b8152506040518060a00160405280606581526020016131d660659139839190611e3d565b82600d1415611751576117516040518060400160405280600381526020016219d95d60ea1b8152506040518060a001604052806065815260200161330460659139839190611e3d565b6117ab604051806040016040528060048152602001630e0c2e8d60e31b815250604051806040016040528060118152602001707365726965732e302e646174612e302e3160781b81525083611e3d9092919063ffffffff16565b601d54601f546117c6916001600160a01b0316908390611e79565b9392505050565b6117d5611e98565b6001600160a01b03166117e6610f82565b6001600160a01b03161461180c5760405162461bcd60e51b8152600401610e8b90612cf7565b6001600160a01b0381166118325760405162461bcd60e51b8152600401610e8b90612c3f565b61183b81611e9c565b50565b600d5481565b61184c611e98565b6001600160a01b031661185d610f82565b6001600160a01b0316146118835760405162461bcd60e51b8152600401610e8b90612cf7565b600c54602354600b546040516371d4ed8d60e11b81526001600160a01b03600160401b90930483169263e3a9db1a926118c192911690600401612a8a565b60206040518083038186803b1580156118d957600080fd5b505afa1580156118ed573d6000803e3d6000fd5b505050506040513d601f19601f8201168201806040525081019061191191906129d1565b1015610e135760405162461bcd60e51b8152600401610e8b90612cc8565b60008281526006602052604090205482906001600160a01b031633146119675760405162461bcd60e51b8152600401610e8b90612d2c565b60008181526006602052604080822080546001600160a01b03191690555182917f7cc135e0cebb02c3480ae5d74d377283180a2601f8f644edf7987b009316c63a91a260006119b583610f97565b905060606119dc82604051806040016040528060018152602001600b60fa1b815250611eec565b60008681526018602052604081205482519293506001600160a01b031691819081908190611a2f9087908390611a2257634e487b7160e01b600052603260045260246000fd5b60200260200101516105bd565b9350611a5586600181518110611a2257634e487b7160e01b600052603260045260246000fd5b9250611a7b86600281518110611a2257634e487b7160e01b600052603260045260246000fd5b9150611aa186600381518110611a2257634e487b7160e01b600052603260045260246000fd5b90506001600160a01b038516611ac95760405162461bcd60e51b8152600401610e8b90612c16565b6001600160a01b03851660009081526011602090815260408083208151608081018352888152808401888152928101878152606082018781528354600181810186559488529686902092516004909702909201958655925191850191909155905160028401555160039092019190915554600e54611b479043612eda565b1115611e03576000611b596000611339565b9050600060075460ff166003811115611b8257634e487b7160e01b600052602160045260246000fd5b1415611b95575050505050505050610b1f565b6000805260146020526000805160206130eb8339815191525480611bc157505050505050505050610b1f565b6008546000805260146020526000805160206130eb833981519152611be7600184612eda565b81548110611c0557634e487b7160e01b600052603260045260246000fd5b90600052602060002001541115611e00576001600160a01b03871660009081526013602052604081205460ff166003811115611c5157634e487b7160e01b600052602160045260246000fd5b14611e00576001600160a01b03871660009081526011602052604090205480611c835750505050505050505050610b1f565b6009546001600160a01b0389166000908152601160205260409020611ca9600184612eda565b81548110611cc757634e487b7160e01b600052603260045260246000fd5b90600052602060002090600402016002015411158015611d3b5750600a546001600160a01b0389166000908152601160205260409020611d08600184612eda565b81548110611d2657634e487b7160e01b600052603260045260246000fd5b90600052602060002090600402016003015410155b15611db5576001600160a01b0388166000908152601760205260408120805491611d6483612ef1565b90915550506001600160a01b0388166000818152601560209081526040808320805460018181018355918552838520015592825260169052908120805491611dab83612ef1565b9190505550611dfe565b6001600160a01b038816600081815260156020908152604080832080546001810182559084528284200183905592825260169052908120805491611df883612ef1565b91905055505b505b50505b505043600e819055600f555050505050505050565b611e20612758565b611e28612758565b611e3481868686612128565b95945050505050565b6080830151611e4c9083612165565b6080830151610b1f9082612165565b6080830151611e6a9083612165565b6080830151610b1f908261217c565b6000611e9084848460016320214ca360e11b61218c565b949350505050565b3390565b600080546001600160a01b038381166001600160a01b0319831681178455604051919092169283917f8be0079c531659141344cd1fd0a4f28419497f9722a3daafe3b4186f6b6457e09190a35050565b606082600060015b60018351611f029190612eda565b821015611f49576000611f16878785612347565b9050806000191415611f285750611f49565b81611f3281612ef1565b9250611f419050816001612d8f565b925050611ef4565b8067ffffffffffffffff811115611f7057634e487b7160e01b600052604160045260246000fd5b604051908082528060200260200182016040528015611fa357816020015b6060815260200190600190039081611f8e5790505b50935060009150600090505b60018351611fbd9190612eda565b82101561211e576000611fd1878785612347565b9050806000191415611fe1575082515b6000611fed8483612eda565b67ffffffffffffffff81111561201357634e487b7160e01b600052604160045260246000fd5b6040519080825280601f01601f19166020018201604052801561203d576020820181803683370190505b509050806000855b848110156120d05787818151811061206d57634e487b7160e01b600052603260045260246000fd5b01602001516001600160f81b031916838361208781612ef1565b9450815181106120a757634e487b7160e01b600052603260045260246000fd5b60200101906001600160f81b031916908160001a905350806120c881612ef1565b915050612045565b506120dc846001612d8f565b95508188866120ea81612ef1565b97508151811061210a57634e487b7160e01b600052603260045260246000fd5b602002602001018190525050505050611faf565b5050505b92915050565b612130612758565b612140856080015161010061240d565b50509183526001600160a01b031660208301526001600160e01b031916604082015290565b6121728260038351612465565b610b1f828261253f565b61218882600083612465565b5050565b6000306005546040516020016121a3929190612a68565b60408051808303601f19018152918152815160209283012060055460608901526000818152600690935281832080546001600160a01b0319166001600160a01b038b16179055905190925082917fb5e6e01e79f91267dc17b4e6314d5d4d03593d2ceee0fbb452b750bd70ea5af991a2600082600080886000015189602001518a604001518b606001518a8d608001516000015160405160240161224e989796959493929190612a9e565b60408051601f198184030181529181526020820180516001600160e01b03166001600160e01b0319909416939093179092526003549151630200057560e51b81529092506001600160a01b0390911690634000aea0906122b6908a9089908690600401612b06565b602060405180830381600087803b1580156122d057600080fd5b505af11580156122e4573d6000803e3d6000fd5b505050506040513d601f19601f82011682018060405250810190612308919061286a565b6123245760405162461bcd60e51b8152600401610e8b90612c85565b6001600560008282546123379190612d8f565b9091555091979650505050505050565b81516000908490849060011461236d57634e487b7160e01b600052600160045260246000fd5b835b82518110156123ff578160008151811061239957634e487b7160e01b600052603260045260246000fd5b602001015160f81c60f81b6001600160f81b0319168382815181106123ce57634e487b7160e01b600052603260045260246000fd5b01602001516001600160f81b03191614156123ed5792506117c6915050565b806123f781612ef1565b91505061236f565b506000199695505050505050565b61241561278d565b612420602083612f0c565b1561244857612430602083612f0c565b61243b906020612eda565b6124459083612d8f565b91505b506020828101829052604080518085526000815290920101905290565b60178111612486576124808360e0600585901b168317612559565b50610b1f565b60ff81116124b0576124a3836018611fe0600586901b1617612559565b5061248083826001612571565b61ffff81116124db576124ce836019611fe0600586901b1617612559565b5061248083826002612571565b63ffffffff8111612508576124fb83601a611fe0600586901b1617612559565b5061248083826004612571565b67ffffffffffffffff8111610b1f5761252c83601b611fe0600586901b1617612559565b5061253983826008612571565b50505050565b61254761278d565b6117c68384600001515184855161258a565b61256161278d565b6117c68384600001515184612667565b61257961278d565b611e908485600001515185856126b6565b61259261278d565b82518211156125a057600080fd5b60208501516125af8386612d8f565b11156125e2576125e2856125d2876020015187866125cd9190612d8f565b61272a565b6125dd906002612ebb565b612741565b6000808651805187602083010193508088870111156126015787860182525b505050602084015b602084106126415780518252612620602083612d8f565b915061262d602082612d8f565b905061263a602085612eda565b9350612609565b51815160001960208690036101000a019081169019919091161790525083949350505050565b61266f61278d565b8360200151831061268f5761268f84856020015160026125dd9190612ebb565b8351805160208583010184815350808514156126ac576001810182525b5093949350505050565b6126be61278d565b60208501516126cd8584612d8f565b11156126e1576126e1856125d28685612d8f565b600060016126f184610100612ded565b6126fb9190612eda565b905085518386820101858319825116178152508051848701111561271f5783860181525b509495945050505050565b60008183111561273b575081612122565b50919050565b815161274d838361240d565b50612539838261253f565b6040805160a08101825260008082526020820181905291810182905260608101919091526080810161278861278d565b905290565b604051806040016040528060608152602001600081525090565b80356001600160a01b03811681146106b357600080fd5b803560ff811681146106b357600080fd5b6000602082840312156127e0578081fd5b6117c6826127a7565b600080600080608085870312156127fe578283fd5b612807856127a7565b935060208501356003811061281a578384fd5b9250612828604086016127be565b9150612836606086016127be565b905092959194509250565b60008060408385031215612853578182fd5b61285c836127a7565b946020939093013593505050565b60006020828403121561287b578081fd5b815180151581146117c6578182fd5b60006020828403121561289b578081fd5b5035919050565b600080604083850312156128b4578182fd5b50508035926020909101359150565b600080602083850312156128d5578182fd5b823567ffffffffffffffff808211156128ec578384fd5b818501915085601f8301126128ff578384fd5b81358181111561290d578485fd5b86602082850101111561291e578485fd5b60209290920196919550909350505050565b60006020808385031215612942578182fd5b823567ffffffffffffffff80821115612959578384fd5b818501915085601f83011261296c578384fd5b81358181111561297e5761297e612f42565b604051601f8201601f19168101850183811182821017156129a1576129a1612f42565b60405281815283820185018810156129b7578586fd5b818585018683013790810190930193909352509392505050565b6000602082840312156129e2578081fd5b5051919050565b6000806000606084860312156129fd578283fd5b505081359360208301359350604090920135919050565b60008151808452815b81811015612a3957602081850181015186830182015201612a1d565b81811115612a4a5782602083870101525b50601f01601f19169290920160200192915050565b90815260200190565b60609290921b6bffffffffffffffffffffffff19168252601482015260340190565b6001600160a01b0391909116815260200190565b6001600160a01b0389811682526020820189905260408201889052861660608201526001600160e01b03198516608082015260a0810184905260c0810183905261010060e08201819052600090612af783820185612a14565b9b9a5050505050505050505050565b600060018060a01b038516825283602083015260606040830152611e346060830184612a14565b6020808252825182820181905260009190848201906040850190845b81811015612b6e5783516001600160a01b031683529284019291840191600101612b49565b50909695505050505050565b6020808252825182820181905260009190848201906040850190845b81811015612b6e57835183529284019291840191600101612b96565b6000831515825260406020830152611e906040830184612a14565b6020810160048310612bef57634e487b7160e01b600052602160045260246000fd5b91905290565b60079190910b815260200190565b6000602082526117c66020830184612a14565b6020808252600f908201526e496e76616c6964206164647265737360881b604082015260600190565b60208082526026908201527f4f776e61626c653a206e6577206f776e657220697320746865207a65726f206160408201526564647265737360d01b606082015260800190565b60208082526023908201527f756e61626c6520746f207472616e73666572416e6443616c6c20746f206f7261604082015262636c6560e81b606082015260800190565b6020808252601590820152742732b2b2103a3790333ab7321031b0b6b830b4b3b760591b604082015260600190565b6020808252818101527f4f776e61626c653a2063616c6c6572206973206e6f7420746865206f776e6572604082015260600190565b60208082526028908201527f536f75726365206d75737420626520746865206f7261636c65206f6620746865604082015267081c995c5d595cdd60c21b606082015260800190565b93845260208401929092526040830152606082015260800190565b60008219821115612da257612da2612f2c565b500190565b80825b6001808611612db95750612de4565b818704821115612dcb57612dcb612f2c565b80861615612dd857918102915b9490941c938002612daa565b94509492505050565b60006117c66000198484600082612e06575060016117c6565b81612e13575060006117c6565b8160018114612e295760028114612e3357612e60565b60019150506117c6565b60ff841115612e4457612e44612f2c565b6001841b915084821115612e5a57612e5a612f2c565b506117c6565b5060208310610133831016604e8410600b8410161715612e93575081810a83811115612e8e57612e8e612f2c565b6117c6565b612ea08484846001612da7565b808604821115612eb257612eb2612f2c565b02949350505050565b6000816000190483118215151615612ed557612ed5612f2c565b500290565b600082821015612eec57612eec612f2c565b500390565b6000600019821415612f0557612f05612f2c565b5060010190565b600082612f2757634e487b7160e01b81526012600452602481fd5b500690565b634e487b7160e01b600052601160045260246000fd5b634e487b7160e01b600052604160045260246000fdfe68747470733a2f2f6170692e6569612e676f762f7365726965732f3f7365726965735f69643d4542412e4e592d414c4c2e442e484c266170695f6b65793d3462393734373030393462663563623066623265306264303263373736383337266e756d3d3168747470733a2f2f6170692e6569612e676f762f7365726965732f3f7365726965735f69643d4542412e4e452d414c4c2e442e484c266170695f6b65793d3462393734373030393462663563623066623265306264303263373736383337266e756d3d3168747470733a2f2f6170692e6569612e676f762f7365726965732f3f7365726965735f69643d4542412e43454e542d414c4c2e442e484c266170695f6b65793d3462393734373030393462663563623066623265306264303263373736383337266e756d3d3168747470733a2f2f6170692e6569612e676f762f7365726965732f3f7365726965735f69643d4542412e53572d414c4c2e442e484c266170695f6b65793d3462393734373030393462663563623066623265306264303263373736383337266e756d3d314f26c3876aa9f4b92579780beea1161a61f87ebf1ec6ee865b299e447ecba99c68747470733a2f2f6170692e6569612e676f762f7365726965732f3f7365726965735f69643d4542412e464c412d414c4c2e442e484c266170695f6b65793d3462393734373030393462663563623066623265306264303263373736383337266e756d3d3168747470733a2f2f6170692e6569612e676f762f7365726965732f3f7365726965735f69643d4542412e4d4944572d414c4c2e442e484c266170695f6b65793d3462393734373030393462663563623066623265306264303263373736383337266e756d3d3168747470733a2f2f6170692e6569612e676f762f7365726965732f3f7365726965735f69643d4542412e54454e2d414c4c2e442e484c266170695f6b65793d3462393734373030393462663563623066623265306264303263373736383337266e756d3d3168747470733a2f2f6170692e6569612e676f762f7365726965732f3f7365726965735f69643d4542412e43414c2d414c4c2e442e484c266170695f6b65793d3665623461393031313738393433343232643039386630346430323562653863266e756d3d3168747470733a2f2f6170692e6569612e676f762f7365726965732f3f7365726965735f69643d4542412e4e572d414c4c2e442e484c266170695f6b65793d3462393734373030393462663563623066623265306264303263373736383337266e756d3d3168747470733a2f2f6170692e6569612e676f762f7365726965732f3f7365726965735f69643d4542412e5445582d414c4c2e442e484c266170695f6b65793d3462393734373030393462663563623066623265306264303263373736383337266e756d3d3168747470733a2f2f6170692e6569612e676f762f7365726965732f3f7365726965735f69643d4542412e4d4944412d414c4c2e442e484c266170695f6b65793d3462393734373030393462663563623066623265306264303263373736383337266e756d3d3168747470733a2f2f6170692e6569612e676f762f7365726965732f3f7365726965735f69643d4542412e4341522d414c4c2e442e484c266170695f6b65793d3462393734373030393462663563623066623265306264303263373736383337266e756d3d3168747470733a2f2f6170692e6569612e676f762f7365726965732f3f7365726965735f69643d4542412e53452d414c4c2e442e484c266170695f6b65793d3462393734373030393462663563623066623265306264303263373736383337266e756d3d31a2646970667358221220a1f62f6e8ffb2fe1bd516ccee5dd6ff81ad4eaad4dcb5915c8f44a8c0419911164736f6c63430008000033608060405234801561001057600080fd5b5061002161001c610026565b61002a565b61007a565b3390565b600080546001600160a01b038381166001600160a01b0319831681178455604051919092169283917f8be0079c531659141344cd1fd0a4f28419497f9722a3daafe3b4186f6b6457e09190a35050565b610616806100896000396000f3fe6080604052600436106100555760003560e01c806351cff8d91461005a578063715018a61461007c5780638da5cb5b14610091578063e3a9db1a146100bc578063f2fde38b146100e9578063f340fa0114610109575b600080fd5b34801561006657600080fd5b5061007a610075366004610455565b61011c565b005b34801561008857600080fd5b5061007a6101d1565b34801561009d57600080fd5b506100a661021c565b6040516100b3919061047b565b60405180910390f35b3480156100c857600080fd5b506100dc6100d7366004610455565b61022b565b6040516100b3919061059e565b3480156100f557600080fd5b5061007a610104366004610455565b610246565b61007a610117366004610455565b6102b7565b610124610360565b6001600160a01b031661013561021c565b6001600160a01b0316146101645760405162461bcd60e51b815260040161015b90610569565b60405180910390fd5b6001600160a01b038116600081815260016020526040812080549190559061018c9082610364565b816001600160a01b03167f7084f5476618d8e60b11ef0d7d3f06914655adb8793e28ff7f018d4c76d505d5826040516101c5919061059e565b60405180910390a25050565b6101d9610360565b6001600160a01b03166101ea61021c565b6001600160a01b0316146102105760405162461bcd60e51b815260040161015b90610569565b61021a6000610405565b565b6000546001600160a01b031690565b6001600160a01b031660009081526001602052604090205490565b61024e610360565b6001600160a01b031661025f61021c565b6001600160a01b0316146102855760405162461bcd60e51b815260040161015b90610569565b6001600160a01b0381166102ab5760405162461bcd60e51b815260040161015b9061048f565b6102b481610405565b50565b6102bf610360565b6001600160a01b03166102d061021c565b6001600160a01b0316146102f65760405162461bcd60e51b815260040161015b90610569565b6001600160a01b0381166000908152600160205260408120805434928392916103209084906105a7565b92505081905550816001600160a01b03167f2da466a7b24304f47e87fa2e1e5a81b9831ce54fec19055ce277ca2f39ba42c4826040516101c5919061059e565b3390565b804710156103845760405162461bcd60e51b815260040161015b90610532565b6000826001600160a01b03168260405161039d90610478565b60006040518083038185875af1925050503d80600081146103da576040519150601f19603f3d011682016040523d82523d6000602084013e6103df565b606091505b50509050806104005760405162461bcd60e51b815260040161015b906104d5565b505050565b600080546001600160a01b038381166001600160a01b0319831681178455604051919092169283917f8be0079c531659141344cd1fd0a4f28419497f9722a3daafe3b4186f6b6457e09190a35050565b600060208284031215610466578081fd5b8135610471816105cb565b9392505050565b90565b6001600160a01b0391909116815260200190565b60208082526026908201527f4f776e61626c653a206e6577206f776e657220697320746865207a65726f206160408201526564647265737360d01b606082015260800190565b6020808252603a908201527f416464726573733a20756e61626c6520746f2073656e642076616c75652c207260408201527f6563697069656e74206d61792068617665207265766572746564000000000000606082015260800190565b6020808252601d908201527f416464726573733a20696e73756666696369656e742062616c616e6365000000604082015260600190565b6020808252818101527f4f776e61626c653a2063616c6c6572206973206e6f7420746865206f776e6572604082015260600190565b90815260200190565b600082198211156105c657634e487b7160e01b81526011600452602481fd5b500190565b6001600160a01b03811681146102b457600080fdfea264697066735822122023a5494ecdbbac557b99b99cdf164e867f11e47979ab03d5a957ef16fc443cc164736f6c63430008000033",
  "linkReferences": {},
  "deployedLinkReferences": {}
}