{
  "_format": "hh-sol-artifact-1",
  "contractName": "Gateway",
  "sourceName": "contracts/Gateway.sol",
  "abi": [
    {
      "inputs": [],
      "stateMutability": "nonpayable",
      "type": "constructor"
    },
    {
      "anonymous": false,
      "inputs": [
        {
          "indexed": true,
          "internalType": "address",
          "name": "previousOwner",
          "type": "address"
        },
        {
          "indexed": true,
          "internalType": "address",
          "name": "newOwner",
          "type": "address"
        }
      ],
      "name": "OwnershipTransferred",
      "type": "event"
    },
    {
      "anonymous": false,
      "inputs": [
        {
          "indexed": false,
          "internalType": "address",
          "name": "user",
          "type": "address"
        },
        {
          "indexed": false,
          "internalType": "address",
          "name": "pact",
          "type": "address"
        }
      ],
      "name": "PactCreated",
      "type": "event"
    },
    {
      "inputs": [
        {
          "internalType": "string",
          "name": "nestId",
          "type": "string"
        },
        {
          "internalType": "uint256",
          "name": "region",
          "type": "uint256"
        }
      ],
      "name": "createPact",
      "outputs": [],
      "stateMutability": "payable",
      "type": "function"
    },
    {
      "inputs": [],
      "name": "getAllPacts",
      "outputs": [
        {
          "internalType": "address[]",
          "name": "",
          "type": "address[]"
        }
      ],
      "stateMutability": "view",
      "type": "function"
    },
    {
      "inputs": [],
      "name": "owner",
      "outputs": [
        {
          "internalType": "address",
          "name": "",
          "type": "address"
        }
      ],
      "stateMutability": "view",
      "type": "function"
    },
    {
      "inputs": [
        {
          "internalType": "uint256",
          "name": "",
          "type": "uint256"
        }
      ],
      "name": "pacts",
      "outputs": [
        {
          "internalType": "address",
          "name": "",
          "type": "address"
        }
      ],
      "stateMutability": "view",
      "type": "function"
    },
    {
      "inputs": [],
      "name": "renounceOwnership",
      "outputs": [],
      "stateMutability": "nonpayable",
      "type": "function"
    },
    {
      "inputs": [
        {
          "internalType": "address",
          "name": "newOwner",
          "type": "address"
        }
      ],
      "name": "transferOwnership",
      "outputs": [],
      "stateMutability": "nonpayable",
      "type": "function"
    }
  ],
  "bytecode": "0x608060405234801561001057600080fd5b5061002161001c61007a565b61007e565b6001805480820182556000919091527fb10e2d527612073b26eecdfd717e6a320cf44b4afac2b0732d9fcbe2b7fa0cf60180546001600160a01b031916905561007560026100ce602090811b61038617901c565b6100d7565b3390565b600080546001600160a01b038381166001600160a01b0319831681178455604051919092169283917f8be0079c531659141344cd1fd0a4f28419497f9722a3daafe3b4186f6b6457e09190a35050565b80546001019055565b6126eb806100e66000396000f3fe6080604052600436106100555760003560e01c806301d70fa11461005a5780630edf25f5146100855780636dd80705146100b2578063715018a6146100c75780638da5cb5b146100dc578063f2fde38b146100f1575b600080fd5b34801561006657600080fd5b5061006f610111565b60405161007c9190610510565b60405180910390f35b34801561009157600080fd5b506100a56100a03660046104ca565b61021d565b60405161007c91906104e2565b6100c56100c0366004610423565b610247565b005b3480156100d357600080fd5b506100c56102b2565b3480156100e857600080fd5b506100a5610306565b3480156100fd57600080fd5b506100c561010c3660046103f5565b610315565b6060600061011f600261038f565b67ffffffffffffffff81111561014557634e487b7160e01b600052604160045260246000fd5b60405190808252806020026020018201604052801561016e578160200160208202803683370190505b50905060005b61017e600261038f565b81101561021757600161019182826105d8565b815481106101af57634e487b7160e01b600052603260045260246000fd5b9060005260206000200160009054906101000a90046001600160a01b03168282815181106101ed57634e487b7160e01b600052603260045260246000fd5b6001600160a01b03909216602092830291909101909101528061020f816105f0565b915050610174565b50905090565b6001818154811061022d57600080fd5b6000918252602090912001546001600160a01b0316905081565b6000604051610255906103e7565b604051809103906000f080158015610271573d6000803e3d6000fd5b5090507fe922440c79447d92268efd9894295fec510eea4e6fbc756cf8239cdecc2d836c33826040516102a59291906104f6565b60405180910390a1505050565b6102ba610393565b6001600160a01b03166102cb610306565b6001600160a01b0316146102fa5760405162461bcd60e51b81526004016102f1906105a3565b60405180910390fd5b6103046000610397565b565b6000546001600160a01b031690565b61031d610393565b6001600160a01b031661032e610306565b6001600160a01b0316146103545760405162461bcd60e51b81526004016102f1906105a3565b6001600160a01b03811661037a5760405162461bcd60e51b81526004016102f19061055d565b61038381610397565b50565b80546001019055565b5490565b3390565b600080546001600160a01b038381166001600160a01b0319831681178455604051919092169283917f8be0079c531659141344cd1fd0a4f28419497f9722a3daafe3b4186f6b6457e09190a35050565b61207e806200063883390190565b600060208284031215610406578081fd5b81356001600160a01b038116811461041c578182fd5b9392505050565b60008060408385031215610435578081fd5b823567ffffffffffffffff8082111561044c578283fd5b818501915085601f83011261045f578283fd5b813560208282111561047357610473610621565b604051601f8301601f191681018201848111828210171561049657610496610621565b60405282815284830182018910156104ac578586fd5b82828601838301379182018101949094529694909201359450505050565b6000602082840312156104db578081fd5b5035919050565b6001600160a01b0391909116815260200190565b6001600160a01b0392831681529116602082015260400190565b6020808252825182820181905260009190848201906040850190845b818110156105515783516001600160a01b03168352928401929184019160010161052c565b50909695505050505050565b60208082526026908201527f4f776e61626c653a206e6577206f776e657220697320746865207a65726f206160408201526564647265737360d01b606082015260800190565b6020808252818101527f4f776e61626c653a2063616c6c6572206973206e6f7420746865206f776e6572604082015260600190565b600082198211156105eb576105eb61060b565b500190565b60006000198214156106045761060461060b565b5060010190565b634e487b7160e01b600052601160045260246000fd5b634e487b7160e01b600052604160045260246000fdfe608060405260016005908155601080546001600160a01b031990811673a94fcd7aaed52a5d8a525319b16b4d3296a02f6a179091557f666331373366633932643537343863633864373663656232316434343261353660115567016345785d8a000060128190556013805490921673c57b33452b4f7bb189bb5afae9cc4aba1f7a4fd8179091557f64353237306431633331313934316430623038626561643231666561373734376014556015556016805460ff19168217905560b4601755601855348015620000ce57600080fd5b50620000e3620000dd6200013e565b62000142565b620000ed62000192565b436007819055600855600f80546001810182556000919091527f8d1108e10bcb7c27dddfc02ed9d693a074039d026cf4ea4240b40f7d581ac8020180546001600160a01b0319163317905562000279565b3390565b600080546001600160a01b038381166001600160a01b0319831681178455604051919092169283917f8be0079c531659141344cd1fd0a4f28419497f9722a3daafe3b4186f6b6457e09190a35050565b6200022573c89bd4e1632d3a43cb03aaad5262cbe4038bc5716001600160a01b03166338cc48316040518163ffffffff1660e01b815260040160206040518083038186803b158015620001e457600080fd5b505afa158015620001f9573d6000803e3d6000fd5b505050506040513d601f19601f820116820180604052508101906200021f919062000249565b62000227565b565b600380546001600160a01b0319166001600160a01b0392909216919091179055565b6000602082840312156200025b578081fd5b81516001600160a01b038116811462000272578182fd5b9392505050565b611df580620002896000396000f3fe608060405234801561001057600080fd5b50600436106101845760003560e01c8063827e238b116100d9578063b47b187411610087578063b47b1874146102e7578063d5c667ff14610215578063e688886014610281578063eb4d60471461030a578063f2fde38b1461031d578063f7a9ce1a14610330578063fc9299901461021557610184565b8063827e238b146102815780638931d148146102895780638c4ec46f1461029e5780638da5cb5b146102b157806391cd403a146102b95780639201de55146102c1578063b07e0330146102d457610184565b80634de25798116101365780634de257981461021d5780635e57966d1461023057806365058f4c146102155780636e04ff0d14610250578063715018a61461027157806372d04052146102795780637f2736d11461021557610184565b806301436574146101895780631bd95155146101b25780631cd0f186146101c557806335c1d349146101da5780634585e33b146101fa5780634c85c4331461020d5780634da44d1d14610215575b600080fd5b61019c61019736600461172c565b610343565b6040516101a99190611907565b60405180910390f35b61019c6101c036600461181b565b610374565b6101d86101d3366004611775565b610402565b005b6101ed6101e8366004611775565b610405565b6040516101a99190611932565b6101d86102083660046117ae565b61042f565b61019c6104e2565b6101d86104e8565b61019c61022b366004611712565b6104ea565b61024361023e366004611712565b6105b1565b6040516101a99190611a34565b61026361025e3660046117ae565b61080c565b6040516101a9929190611a19565b6101d861083d565b61019c61088f565b61019c610895565b61029161089a565b6040516101a991906119d5565b61019c6102ac36600461178d565b61089f565b6101ed6108bb565b61019c6108ca565b6102436102cf366004611775565b6108d0565b6101d86102e236600461178d565b6108f9565b6102fa6102f536600461172c565b6109cf565b6040516101a99493929190611b76565b61019c610318366004611775565b610a15565b6101d861032b366004611712565b610aea565b6101d861033e36600461178d565b610b58565b600d602052816000526040600020818154811061035f57600080fd5b90600052602060002001600091509150505481565b600081815b81518110156103fb5760008282815181106103a457634e487b7160e01b600052603260045260246000fd5b016020015160f81c9050603081108015906103c0575060398111155b156103e8576103d0603082611cdc565b6103db85600a611cbd565b6103e59190611b91565b93505b50806103f381611cf3565b915050610379565b5050919050565b50565b600f818154811061041557600080fd5b6000918252602090912001546001600160a01b0316905081565b600f546040517f7fedc13b988790f9737f2969451dc1867782dc90f901ee940ba2e3920259e8219161046091611907565b60405180910390a160005b600f548110156104c6576104b3600f828154811061049957634e487b7160e01b600052603260045260246000fd5b6000918252602090912001546001600160a01b03166104ea565b50806104be81611cf3565b91505061046b565b5060006104d36000610a15565b50504360078190556008555050565b60095481565b565b6000806105016011543063f7a9ce1a60e01b610d67565b9050610534604051806040016040528060048152602001633ab9b2b960e11b81525061052c856105b1565b839190610d8c565b604080518082019091526009815268074696d657374616d760bc1b602082015261056090829042610daf565b601054601254600091610580916001600160a01b03909116908490610dcd565b6000818152600e6020526040902080546001600160a01b0319166001600160a01b038716179055925050505b919050565b604080518082018252601081526f181899199a1a9b1b9c1cb0b131b232b360811b60208201528151602a80825260608281019094526001600160a01b0385169291600091602082018180368337019050509050600360fc1b8160008151811061062a57634e487b7160e01b600052603260045260246000fd5b60200101906001600160f81b031916908160001a905350600f60fb1b8160018151811061066757634e487b7160e01b600052603260045260246000fd5b60200101906001600160f81b031916908160001a90535060005b6014811015610803578260048561069984600c611b91565b602081106106b757634e487b7160e01b600052603260045260246000fd5b1a60f81b6001600160f81b031916901c60f81c60ff16815181106106eb57634e487b7160e01b600052603260045260246000fd5b01602001516001600160f81b03191682610706836002611cbd565b610711906002611b91565b8151811061072f57634e487b7160e01b600052603260045260246000fd5b60200101906001600160f81b031916908160001a905350828461075383600c611b91565b6020811061077157634e487b7160e01b600052603260045260246000fd5b825191901a600f1690811061079657634e487b7160e01b600052603260045260246000fd5b01602001516001600160f81b031916826107b1836002611cbd565b6107bc906003611b91565b815181106107da57634e487b7160e01b600052603260045260246000fd5b60200101906001600160f81b031916908160001a905350806107fb81611cf3565b915050610681565b50949350505050565b60006060601854600854436108219190611cdc565b1160405180602001604052806000815250915091509250929050565b610845610dec565b6001600160a01b03166108566108bb565b6001600160a01b0316146108855760405162461bcd60e51b815260040161087c90611af9565b60405180910390fd5b6104e86000610df0565b60085481565b600090565b606090565b600c602052816000526040600020818154811061035f57600080fd5b6000546001600160a01b031690565b60075481565b6060816040516020016108e39190611907565b6040516020818303038152906040529050919050565b60008281526006602052604090205482906001600160a01b031633146109315760405162461bcd60e51b815260040161087c90611b2e565b60008181526006602052604080822080546001600160a01b03191690555182917f7cc135e0cebb02c3480ae5d74d377283180a2601f8f644edf7987b009316c63a91a250600c6020527f13649b2456f1b42fef0f0040b3aaeabcd21a76a0f3f5defd4f583839455116e880546001810182556000919091527f178c34144aa4f22f9dcdc9a6606881972cf65c835163e066ef62f7c270683763015550565b600b60205281600052604060002081815481106109eb57600080fd5b60009182526020909120600490910201805460018201546002830154600390930154919450925084565b600080610a2c6014543063b07e033060e01b610d67565b9050610a6e6040518060400160405280600381526020016219d95d60ea1b8152506040518060a0016040528060658152602001611d5b60659139839190610d8c565b610ac8604051806040016040528060048152602001630e0c2e8d60e31b815250604051806040016040528060118152602001707365726965732e302e646174612e302e3160781b81525083610d8c9092919063ffffffff16565b601354601554610ae3916001600160a01b0316908390610dcd565b9392505050565b610af2610dec565b6001600160a01b0316610b036108bb565b6001600160a01b031614610b295760405162461bcd60e51b815260040161087c90611af9565b6001600160a01b038116610b4f5760405162461bcd60e51b815260040161087c90611a70565b61040281610df0565b60008281526006602052604090205482906001600160a01b03163314610b905760405162461bcd60e51b815260040161087c90611b2e565b60008181526006602052604080822080546001600160a01b03191690555182917f7cc135e0cebb02c3480ae5d74d377283180a2601f8f644edf7987b009316c63a91a26000610bde836108d0565b90506060610c0582604051806040016040528060018152602001600b60fa1b815250610e40565b6000868152600e602052604081205482519293506001600160a01b031691819081908190610c589087908390610c4b57634e487b7160e01b600052603260045260246000fd5b6020026020010151610374565b9350610c7e86600181518110610c4b57634e487b7160e01b600052603260045260246000fd5b9250610ca486600281518110610c4b57634e487b7160e01b600052603260045260246000fd5b9150610cca86600381518110610c4b57634e487b7160e01b600052603260045260246000fd5b90506001600160a01b038516610cf25760405162461bcd60e51b815260040161087c90611a47565b6001600160a01b039094166000908152600b60209081526040808320815160808101835296875286830195865290860193845260608601968752805460018181018355918452919092209451600490910290940193845591519183019190915551600282015590516003909101555050505050565b610d6f6116ac565b610d776116ac565b610d838186868661107c565b95945050505050565b6080830151610d9b90836110b9565b6080830151610daa90826110b9565b505050565b6080830151610dbe90836110b9565b6080830151610daa90826110d0565b6000610de484848460016320214ca360e11b6110e0565b949350505050565b3390565b600080546001600160a01b038381166001600160a01b0319831681178455604051919092169283917f8be0079c531659141344cd1fd0a4f28419497f9722a3daafe3b4186f6b6457e09190a35050565b606082600060015b60018351610e569190611cdc565b821015610e9d576000610e6a87878561129b565b9050806000191415610e7c5750610e9d565b81610e8681611cf3565b9250610e959050816001611b91565b925050610e48565b8067ffffffffffffffff811115610ec457634e487b7160e01b600052604160045260246000fd5b604051908082528060200260200182016040528015610ef757816020015b6060815260200190600190039081610ee25790505b50935060009150600090505b60018351610f119190611cdc565b821015611072576000610f2587878561129b565b9050806000191415610f35575082515b6000610f418483611cdc565b67ffffffffffffffff811115610f6757634e487b7160e01b600052604160045260246000fd5b6040519080825280601f01601f191660200182016040528015610f91576020820181803683370190505b509050806000855b8481101561102457878181518110610fc157634e487b7160e01b600052603260045260246000fd5b01602001516001600160f81b0319168383610fdb81611cf3565b945081518110610ffb57634e487b7160e01b600052603260045260246000fd5b60200101906001600160f81b031916908160001a9053508061101c81611cf3565b915050610f99565b50611030846001611b91565b955081888661103e81611cf3565b97508151811061105e57634e487b7160e01b600052603260045260246000fd5b602002602001018190525050505050610f03565b5050505b92915050565b6110846116ac565b6110948560800151610100611361565b50509183526001600160a01b031660208301526001600160e01b031916604082015290565b6110c682600383516113b9565b610daa8282611493565b6110dc826000836113b9565b5050565b6000306005546040516020016110f7929190611910565b60408051808303601f19018152918152815160209283012060055460608901526000818152600690935281832080546001600160a01b0319166001600160a01b038b16179055905190925082917fb5e6e01e79f91267dc17b4e6314d5d4d03593d2ceee0fbb452b750bd70ea5af991a2600082600080886000015189602001518a604001518b606001518a8d60800151600001516040516024016111a2989796959493929190611946565b60408051601f198184030181529181526020820180516001600160e01b03166001600160e01b0319909416939093179092526003549151630200057560e51b81529092506001600160a01b0390911690634000aea09061120a908a90899086906004016119ae565b602060405180830381600087803b15801561122457600080fd5b505af1158015611238573d6000803e3d6000fd5b505050506040513d601f19601f8201168201806040525081019061125c9190611755565b6112785760405162461bcd60e51b815260040161087c90611ab6565b60016005600082825461128b9190611b91565b9091555091979650505050505050565b8151600090849084906001146112c157634e487b7160e01b600052600160045260246000fd5b835b825181101561135357816000815181106112ed57634e487b7160e01b600052603260045260246000fd5b602001015160f81c60f81b6001600160f81b03191683828151811061132257634e487b7160e01b600052603260045260246000fd5b01602001516001600160f81b0319161415611341579250610ae3915050565b8061134b81611cf3565b9150506112c3565b506000199695505050505050565b6113696116e1565b611374602083611d0e565b1561139c57611384602083611d0e565b61138f906020611cdc565b6113999083611b91565b91505b506020828101829052604080518085526000815290920101905290565b601781116113da576113d48360e0600585901b1683176114ad565b50610daa565b60ff8111611404576113f7836018611fe0600586901b16176114ad565b506113d4838260016114c5565b61ffff811161142f57611422836019611fe0600586901b16176114ad565b506113d4838260026114c5565b63ffffffff811161145c5761144f83601a611fe0600586901b16176114ad565b506113d4838260046114c5565b67ffffffffffffffff8111610daa5761148083601b611fe0600586901b16176114ad565b5061148d838260086114c5565b50505050565b61149b6116e1565b610ae3838460000151518485516114de565b6114b56116e1565b610ae383846000015151846115bb565b6114cd6116e1565b610de484856000015151858561160a565b6114e66116e1565b82518211156114f457600080fd5b60208501516115038386611b91565b11156115365761153685611526876020015187866115219190611b91565b61167e565b611531906002611cbd565b611695565b6000808651805187602083010193508088870111156115555787860182525b505050602084015b602084106115955780518252611574602083611b91565b9150611581602082611b91565b905061158e602085611cdc565b935061155d565b51815160001960208690036101000a019081169019919091161790525083949350505050565b6115c36116e1565b836020015183106115e3576115e384856020015160026115319190611cbd565b835180516020858301018481535080851415611600576001810182525b5093949350505050565b6116126116e1565b60208501516116218584611b91565b111561163557611635856115268685611b91565b6000600161164584610100611bef565b61164f9190611cdc565b90508551838682010185831982511617815250805184870111156116735783860181525b509495945050505050565b60008183111561168f575081611076565b50919050565b81516116a18383611361565b5061148d8382611493565b6040805160a0810182526000808252602082018190529181018290526060810191909152608081016116dc6116e1565b905290565b604051806040016040528060608152602001600081525090565b80356001600160a01b03811681146105ac57600080fd5b600060208284031215611723578081fd5b610ae3826116fb565b6000806040838503121561173e578081fd5b611747836116fb565b946020939093013593505050565b600060208284031215611766578081fd5b81518015158114610ae3578182fd5b600060208284031215611786578081fd5b5035919050565b6000806040838503121561179f578182fd5b50508035926020909101359150565b600080602083850312156117c0578182fd5b823567ffffffffffffffff808211156117d7578384fd5b818501915085601f8301126117ea578384fd5b8135818111156117f8578485fd5b866020828501011115611809578485fd5b60209290920196919550909350505050565b6000602080838503121561182d578182fd5b823567ffffffffffffffff80821115611844578384fd5b818501915085601f830112611857578384fd5b81358181111561186957611869611d44565b604051601f8201601f191681018501838111828210171561188c5761188c611d44565b60405281815283820185018810156118a2578586fd5b818585018683013790810190930193909352509392505050565b60008151808452815b818110156118e1576020818501810151868301820152016118c5565b818111156118f25782602083870101525b50601f01601f19169290920160200192915050565b90815260200190565b60609290921b6bffffffffffffffffffffffff19168252601482015260340190565b6001600160a01b0391909116815260200190565b6001600160a01b0389811682526020820189905260408201889052861660608201526001600160e01b03198516608082015260a0810184905260c0810183905261010060e0820181905260009061199f838201856118bc565b9b9a5050505050505050505050565b600060018060a01b038516825283602083015260606040830152610d8360608301846118bc565b6020808252825182820181905260009190848201906040850190845b81811015611a0d578351835292840192918401916001016119f1565b50909695505050505050565b6000831515825260406020830152610de460408301846118bc565b600060208252610ae360208301846118bc565b6020808252600f908201526e496e76616c6964206164647265737360881b604082015260600190565b60208082526026908201527f4f776e61626c653a206e6577206f776e657220697320746865207a65726f206160408201526564647265737360d01b606082015260800190565b60208082526023908201527f756e61626c6520746f207472616e73666572416e6443616c6c20746f206f7261604082015262636c6560e81b606082015260800190565b6020808252818101527f4f776e61626c653a2063616c6c6572206973206e6f7420746865206f776e6572604082015260600190565b60208082526028908201527f536f75726365206d75737420626520746865206f7261636c65206f6620746865604082015267081c995c5d595cdd60c21b606082015260800190565b93845260208401929092526040830152606082015260800190565b60008219821115611ba457611ba4611d2e565b500190565b80825b6001808611611bbb5750611be6565b818704821115611bcd57611bcd611d2e565b80861615611bda57918102915b9490941c938002611bac565b94509492505050565b6000610ae36000198484600082611c0857506001610ae3565b81611c1557506000610ae3565b8160018114611c2b5760028114611c3557611c62565b6001915050610ae3565b60ff841115611c4657611c46611d2e565b6001841b915084821115611c5c57611c5c611d2e565b50610ae3565b5060208310610133831016604e8410600b8410161715611c95575081810a83811115611c9057611c90611d2e565b610ae3565b611ca28484846001611ba9565b808604821115611cb457611cb4611d2e565b02949350505050565b6000816000190483118215151615611cd757611cd7611d2e565b500290565b600082821015611cee57611cee611d2e565b500390565b6000600019821415611d0757611d07611d2e565b5060010190565b600082611d2957634e487b7160e01b81526012600452602481fd5b500690565b634e487b7160e01b600052601160045260246000fd5b634e487b7160e01b600052604160045260246000fdfe68747470733a2f2f6170692e6569612e676f762f7365726965732f3f7365726965735f69643d4542412e43414c2d414c4c2e442e484c266170695f6b65793d3665623461393031313738393433343232643039386630346430323562653863266e756d3d31a26469706673582212200855dc119625b3af7dd24f8305439baed93bb122a7d8f3693a4969a49d9528f264736f6c63430008000033a2646970667358221220b821c0237ba10dc029d6db1e73e68d044cb7a98edf954f6fda12a7172f6e97e464736f6c63430008000033",
  "linkReferences": {},
  "deployedLinkReferences": {}
}