{
  "_format": "hh-sol-artifact-1",
  "contractName": "Gateway",
  "sourceName": "contracts/Gateway.sol",
  "abi": [
    {
      "inputs": [],
      "stateMutability": "nonpayable",
      "type": "constructor"
    },
    {
      "anonymous": false,
      "inputs": [
        {
          "indexed": true,
          "internalType": "address",
          "name": "previousOwner",
          "type": "address"
        },
        {
          "indexed": true,
          "internalType": "address",
          "name": "newOwner",
          "type": "address"
        }
      ],
      "name": "OwnershipTransferred",
      "type": "event"
    },
    {
      "anonymous": false,
      "inputs": [
        {
          "indexed": false,
          "internalType": "address",
          "name": "user",
          "type": "address"
        },
        {
          "indexed": false,
          "internalType": "address",
          "name": "pact",
          "type": "address"
        }
      ],
      "name": "PactCreated",
      "type": "event"
    },
    {
      "inputs": [
        {
          "internalType": "uint256",
          "name": "region",
          "type": "uint256"
        },
        {
          "internalType": "uint256",
          "name": "reward",
          "type": "uint256"
        }
      ],
      "name": "createPact",
      "outputs": [],
      "stateMutability": "payable",
      "type": "function"
    },
    {
      "inputs": [],
      "name": "getAllPacts",
      "outputs": [
        {
          "internalType": "address[]",
          "name": "",
          "type": "address[]"
        }
      ],
      "stateMutability": "view",
      "type": "function"
    },
    {
      "inputs": [],
      "name": "owner",
      "outputs": [
        {
          "internalType": "address",
          "name": "",
          "type": "address"
        }
      ],
      "stateMutability": "view",
      "type": "function"
    },
    {
      "inputs": [
        {
          "internalType": "uint256",
          "name": "",
          "type": "uint256"
        }
      ],
      "name": "pacts",
      "outputs": [
        {
          "internalType": "address",
          "name": "",
          "type": "address"
        }
      ],
      "stateMutability": "view",
      "type": "function"
    },
    {
      "inputs": [],
      "name": "renounceOwnership",
      "outputs": [],
      "stateMutability": "nonpayable",
      "type": "function"
    },
    {
      "inputs": [
        {
          "internalType": "address",
          "name": "newOwner",
          "type": "address"
        }
      ],
      "name": "transferOwnership",
      "outputs": [],
      "stateMutability": "nonpayable",
      "type": "function"
    }
  ],
  "bytecode": "0x608060405234801561001057600080fd5b5061002161001c61007a565b61007e565b6001805480820182556000919091527fb10e2d527612073b26eecdfd717e6a320cf44b4afac2b0732d9fcbe2b7fa0cf60180546001600160a01b031916905561007560026100ce602090811b6103e217901c565b6100d7565b3390565b600080546001600160a01b038381166001600160a01b0319831681178455604051919092169283917f8be0079c531659141344cd1fd0a4f28419497f9722a3daafe3b4186f6b6457e09190a35050565b80546001019055565b6143dd806100e66000396000f3fe6080604052600436106200005c5760003560e01c806301d70fa114620000615780630edf25f51462000091578063715018a614620000c55780638da5cb5b14620000df578063bf9f5d7114620000f7578063f2fde38b146200010e575b600080fd5b3480156200006e57600080fd5b506200007962000133565b6040516200008891906200050b565b60405180910390f35b3480156200009e57600080fd5b50620000b6620000b036600462000481565b6200024d565b604051620000889190620004bc565b348015620000d257600080fd5b50620000dd62000278565b005b348015620000ec57600080fd5b50620000b6620002d5565b620000dd620001083660046200049a565b620002e4565b3480156200011b57600080fd5b50620000dd6200012d36600462000451565b62000365565b60606000620001436002620003eb565b67ffffffffffffffff8111156200016a57634e487b7160e01b600052604160045260246000fd5b60405190808252806020026020018201604052801562000194578160200160208202803683370190505b50905060005b620001a66002620003eb565b81101562000247576001620001bc8282620005d5565b81548110620001db57634e487b7160e01b600052603260045260246000fd5b9060005260206000200160009054906101000a90046001600160a01b03168282815181106200021a57634e487b7160e01b600052603260045260246000fd5b6001600160a01b0390921660209283029190910190910152806200023e81620005f0565b9150506200019a565b50905090565b600181815481106200025e57600080fd5b6000918252602090912001546001600160a01b0316905081565b62000282620003ef565b6001600160a01b031662000295620002d5565b6001600160a01b031614620002c75760405162461bcd60e51b8152600401620002be90620005a0565b60405180910390fd5b620002d36000620003f3565b565b6000546001600160a01b031690565b6000338383604051620002f79062000443565b6200030593929190620004ea565b604051809103906000f08015801562000322573d6000803e3d6000fd5b5090507fe922440c79447d92268efd9894295fec510eea4e6fbc756cf8239cdecc2d836c338260405162000358929190620004d0565b60405180910390a1505050565b6200036f620003ef565b6001600160a01b031662000382620002d5565b6001600160a01b031614620003ab5760405162461bcd60e51b8152600401620002be90620005a0565b6001600160a01b038116620003d45760405162461bcd60e51b8152600401620002be906200055a565b620003df81620003f3565b50565b80546001019055565b5490565b3390565b600080546001600160a01b038381166001600160a01b0319831681178455604051919092169283917f8be0079c531659141344cd1fd0a4f28419497f9722a3daafe3b4186f6b6457e09190a35050565b613d83806200062583390190565b60006020828403121562000463578081fd5b81356001600160a01b03811681146200047a578182fd5b9392505050565b60006020828403121562000493578081fd5b5035919050565b60008060408385031215620004ad578081fd5b50508035926020909101359150565b6001600160a01b0391909116815260200190565b6001600160a01b0392831681529116602082015260400190565b6001600160a01b039390931683526020830191909152604082015260600190565b6020808252825182820181905260009190848201906040850190845b818110156200054e5783516001600160a01b03168352928401929184019160010162000527565b50909695505050505050565b60208082526026908201527f4f776e61626c653a206e6577206f776e657220697320746865207a65726f206160408201526564647265737360d01b606082015260800190565b6020808252818101527f4f776e61626c653a2063616c6c6572206973206e6f7420746865206f776e6572604082015260600190565b60008219821115620005eb57620005eb6200060e565b500190565b60006000198214156200060757620006076200060e565b5060010190565b634e487b7160e01b600052601160045260246000fdfe608060405260016005908155601a80546001600160a01b031990811673a94fcd7aaed52a5d8a525319b16b4d3296a02f6a179091557f6663313733666339326435373438636338643736636562323164343432613536601b5567016345785d8a0000601c819055601d805490921673c57b33452b4f7bb189bb5afae9cc4aba1f7a4fd8179091557f6435323730643163333131393431643062303862656164323166656137373437601e55601f5560b460205560215560006022556023805467fffffffffffffe0c6001600160401b0319909116179055348015620000e357600080fd5b5060405162003d8338038062003d83833981016040819052620001069162000280565b6200011a620001146200021e565b62000222565b6022829055600b80546001600160a01b0319166001600160a01b038516179055600c8190556040516200014d9062000272565b604051809103906000f0801580156200016a573d6000803e3d6000fd5b5060238054600160401b600160e01b031916680100000000000000006001600160a01b039384168102919091179182905560405163f2fde38b60e01b815291049091169063f2fde38b90620001c4908690600401620002c3565b600060405180830381600087803b158015620001df57600080fd5b505af1158015620001f4573d6000803e3d6000fd5b505042600d55505043600e819055600f55505061753060085550603c6009556050600a55620002d7565b3390565b600080546001600160a01b038381166001600160a01b0319831681178455604051919092169283917f8be0079c531659141344cd1fd0a4f28419497f9722a3daafe3b4186f6b6457e09190a35050565b61069f80620036e483390190565b60008060006060848603121562000295578283fd5b83516001600160a01b0381168114620002ac578384fd5b602085015160409095015190969495509392505050565b6001600160a01b0391909116815260200190565b6133fd80620002e76000396000f3fe608060405234801561001057600080fd5b50600436106102745760003560e01c80637f2736d111610151578063b47b1874116100c3578063eb4d604711610087578063eb4d6047146104fc578063f2fde38b1461050f578063f38d00f014610522578063f60884b11461052a578063f7a9ce1a14610532578063fc9299901461041457610274565b8063b47b1874146104a3578063d12b45b7146104c6578063d5c667ff146104d9578063df148064146104e1578063e6888860146104f457610274565b80638da5cb5b116101155780638da5cb5b1461045257806391cd403a1461045a5780639201de5514610462578063ae9bd36314610475578063b07e033014610488578063b22613ef1461049b57610274565b80637f2736d114610414578063827e238b1461041c5780638501b8c6146104245780638c4ec46f146104375780638d222cbb1461044a57610274565b80634585e33b116101ea5780635e57966d116101ae5780635e57966d146103b357806365058f4c146103d35780636e04ff0d146103db5780636fe9ca4c146103fc578063715018a61461040457806372d040521461040c57610274565b80634585e33b146103665780634da44d1d1461037b5780634f9b670e146103835780635074df8b146103985780635ba48c92146103a057610274565b80632642f18b1161023c5780632642f18b146102e55780632e9b02ef146103055780632fc276c01461031857806335c1d3491461032d57806336ab85221461034057806342445a621461035357610274565b8063014365741461027957806306683bc3146102a25780630d35cea1146102aa57806311765b27146102bd5780631bd95155146102d2575b600080fd5b61028c610287366004612787565b610545565b60405161029991906129d0565b60405180910390f35b61028c610576565b61028c6102b8366004612715565b61057c565b6102c561058e565b60405161029991906129fb565b61028c6102e0366004612876565b61059d565b6102f86102f3366004612715565b61062b565b6040516102999190612a9e565b61028c610313366004612715565b610698565b6103206106aa565b6040516102999190612b25565b6102c561033b3660046127d0565b6106b3565b61028c61034e366004612787565b6106dd565b61028c61036136600461272f565b6106f9565b610379610374366004612809565b6109d0565b005b610379610a6e565b61038b610a91565b6040516102999190612afd565b61028c610a9a565b6103796103ae36600461292f565b610aa0565b6103c66103c1366004612715565b610afe565b6040516102999190612b33565b610379610d59565b6103ee6103e9366004612809565b610d5b565b604051610299929190612ae2565b61028c610d8c565b610379610d92565b61028c610de4565b610379610dea565b61028c610e29565b6102f8610432366004612715565b610e3c565b61028c6104453660046127e8565b610ea6565b61028c610ec2565b6102c5610ec8565b61028c610ed7565b6103c66104703660046127d0565b610edd565b610379610483366004612715565b610f06565b6103796104963660046127e8565b61112a565b61028c6111ee565b6104b66104b1366004612787565b6111f4565b6040516102999493929190612ca4565b61038b6104d4366004612715565b61123a565b61037961124f565b6103796104ef36600461295a565b61126c565b61028c61127a565b61028c61050a3660046127d0565b61127f565b61037961051d366004612715565b611713565b61028c611784565b61037961178a565b6103796105403660046127e8565b611875565b6015602052816000526040600020818154811061056157600080fd5b90600052602060002001600091509150505481565b60095481565b60166020526000908152604090205481565b600b546001600160a01b031681565b600081815b81518110156106245760008282815181106105cd57634e487b7160e01b600052603260045260246000fd5b016020015160f81c9050603081108015906105e9575060398111155b15610611576105f9603082612e0a565b61060485600a612deb565b61060e9190612cbf565b93505b508061061c81612e21565b9150506105a2565b5050919050565b6001600160a01b03811660009081526012602090815260409182902080548351818402810184019094528084526060939283018282801561068b57602002820191906000526020600020905b815481526020019060010190808311610677575b505050505090505b919050565b60176020526000908152604090205481565b60235460070b81565b601981815481106106c357600080fd5b6000918252602090912001546001600160a01b0316905081565b6012602052816000526040600020818154811061056157600080fd5b600080610710601b543063f7a9ce1a60e01b611d5e565b9050600085600281111561073457634e487b7160e01b600052602160045260246000fd5b141561078e576107896040518060400160405280600681526020016530b1ba34b7b760d11b81525060405180604001604052806004815260200163696e666f60e01b81525083611d839092919063ffffffff16565b61091e565b60018560028111156107b057634e487b7160e01b600052602160045260246000fd5b14156108a8576108086040518060400160405280600681526020016530b1ba34b7b760d11b8152506040518060400160405280600781526020016618dbdb5b585b9960ca1b81525083611d839092919063ffffffff16565b610858604051806040016040528060098152602001681c985b99d95219585d60ba1b81525060405180604001604052806002815260200161036360f41b81525083611d839092919063ffffffff16565b610789604051806040016040528060098152602001681c985b99d950dbdbdb60ba1b81525060405180604001604052806002815260200161038360f41b81525083611d839092919063ffffffff16565b60028560028111156108ca57634e487b7160e01b600052602160045260246000fd5b141561091e5761091e6040518060400160405280600681526020016530b1ba34b7b760d11b8152506040518060400160405280600381526020016237b33360e91b81525083611d839092919063ffffffff16565b61094f604051806040016040528060048152602001633ab9b2b960e11b81525061094788610afe565b839190611d83565b604080518082019091526009815268074696d657374616d760bc1b602082015261097b90829042611da1565b601a54601c5460009161099b916001600160a01b03909116908490611dbf565b600081815260186020526040902080546001600160a01b038a166001600160a01b031990911617905592505050949350505050565b6019546040517f7fedc13b988790f9737f2969451dc1867782dc90f901ee940ba2e3920259e82191610a01916129d0565b60405180910390a160005b601954811015610a6957610a5660198281548110610a3a57634e487b7160e01b600052603260045260246000fd5b60009182526020822001546001600160a01b03169080806106f9565b5080610a6181612e21565b915050610a0c565b505050565b33600090815260136020526040902080546001919060ff191682805b0217905550565b60075460ff1681565b600a5481565b50506019805460018082019092557f944998273e477b495144fb8794c914197f3ccb46be2900f4698fd0ef743c96950180546001600160a01b031916339081179091556000908152601360205260409020805460ff19169091179055565b604080518082018252601081526f181899199a1a9b1b9c1cb0b131b232b360811b60208201528151602a80825260608281019094526001600160a01b0385169291600091602082018180368337019050509050600360fc1b81600081518110610b7757634e487b7160e01b600052603260045260246000fd5b60200101906001600160f81b031916908160001a905350600f60fb1b81600181518110610bb457634e487b7160e01b600052603260045260246000fd5b60200101906001600160f81b031916908160001a90535060005b6014811015610d505782600485610be684600c612cbf565b60208110610c0457634e487b7160e01b600052603260045260246000fd5b1a60f81b6001600160f81b031916901c60f81c60ff1681518110610c3857634e487b7160e01b600052603260045260246000fd5b01602001516001600160f81b03191682610c53836002612deb565b610c5e906002612cbf565b81518110610c7c57634e487b7160e01b600052603260045260246000fd5b60200101906001600160f81b031916908160001a9053508284610ca083600c612cbf565b60208110610cbe57634e487b7160e01b600052603260045260246000fd5b825191901a600f16908110610ce357634e487b7160e01b600052603260045260246000fd5b01602001516001600160f81b03191682610cfe836002612deb565b610d09906003612cbf565b81518110610d2757634e487b7160e01b600052603260045260246000fd5b60200101906001600160f81b031916908160001a90535080610d4881612e21565b915050610bce565b50949350505050565b565b60006060602154600f5443610d709190612e0a565b1160405180602001604052806000815250915091509250929050565b600c5481565b610d9a611dde565b6001600160a01b0316610dab610ec8565b6001600160a01b031614610dda5760405162461bcd60e51b8152600401610dd190612c27565b60405180910390fd5b610d596000611de2565b600f5481565b610df2611dde565b6001600160a01b0316610e03610ec8565b6001600160a01b031614610d595760405162461bcd60e51b8152600401610dd190612c27565b3360009081526017602052604090205490565b6001600160a01b03811660009081526015602090815260409182902080548351818402810184019094528084526060939283018282801561068b57602002820191906000526020600020908154815260200190600101908083116106775750505050509050919050565b6014602052816000526040600020818154811061056157600080fd5b60085481565b6000546001600160a01b031690565b600e5481565b606081604051602001610ef091906129d0565b6040516020818303038152906040529050919050565b6019805460018082019092557f944998273e477b495144fb8794c914197f3ccb46be2900f4698fd0ef743c96950180546001600160a01b0319166001600160a01b0384169081179091556000908152601360205260408120805460ff19169092179091555b601e811015610fcb5760008052601460205260008051602061301b833981519152610f97826064612deb565b610fa390614e20612cbf565b8154600181018355600092835260209092209091015580610fc381612e21565b915050610f6b565b506001600160a01b0381166000908152601760205260408120601490555b601e811015611066576001600160a01b0382166000908152601560205260409020611015600283612e3c565b815460018101835560009283526020808420909101919091556001600160a01b0384168252601690526040812080549161104e83612e21565b9190505550808061105e90612e21565b915050610fe9565b50600160376050603c60005b601e811015611122576001600160a01b038616600081815260116020908152604080832081516080810183528a81528084018a81528184018a8152606083018a81528454600181810187559589528789209451600490910290940193845591519383019390935591516002820155905160039091015592825260129052206110fa8286612cbf565b815460018101835560009283526020909220909101558061111a81612e21565b915050611072565b505050505050565b60008281526006602052604090205482906001600160a01b031633146111625760405162461bcd60e51b8152600401610dd190612c5c565b60008181526006602052604080822080546001600160a01b03191690555182917f7cc135e0cebb02c3480ae5d74d377283180a2601f8f644edf7987b009316c63a91a250601460205260008051602061301b83398151915280546001810182556000919091527f48766cb3f34ad585292aaf368933da0e7d4f7943e1217f2b8e495b4b5a119b30015550565b60225481565b6011602052816000526040600020818154811061121057600080fd5b60009182526020909120600490910201805460018201546002830154600390930154919450925084565b60136020526000908152604090205460ff1681565b336000908152601360205260408120805460ff1916600183610a8a565b600892909255600955600a55565b600090565b600080611296601e543063b07e033060e01b611d5e565b9050826112e2576112dd6040518060400160405280600381526020016219d95d60ea1b8152506040518060a001604052806065815260200161316b60659139839190611d83565b611697565b826001141561132b576112dd6040518060400160405280600381526020016219d95d60ea1b8152506040518060a001604052806065815260200161316b60659139839190611d83565b8260021415611374576112dd6040518060400160405280600381526020016219d95d60ea1b8152506040518060a00160405280606581526020016132ff60659139839190611d83565b82600314156113bd576112dd6040518060400160405280600381526020016219d95d60ea1b8152506040518060a0016040528060668152602001612f5160669139839190611d83565b8260041415611406576112dd6040518060400160405280600381526020016219d95d60ea1b8152506040518060a001604052806065815260200161303b60659139839190611d83565b826005141561144f576112dd6040518060400160405280600381526020016219d95d60ea1b8152506040518060a001604052806066815260200161329960669139839190611d83565b8260061415611498576112dd6040518060400160405280600381526020016219d95d60ea1b8152506040518060a00160405280606681526020016130a060669139839190611d83565b82600714156114e1576112dd6040518060400160405280600381526020016219d95d60ea1b8152506040518060a0016040528060648152602001612eed60649139839190611d83565b826008141561152a576112dd6040518060400160405280600381526020016219d95d60ea1b8152506040518060a0016040528060648152602001612e8960649139839190611d83565b8260091415611573576112dd6040518060400160405280600381526020016219d95d60ea1b8152506040518060a00160405280606481526020016131d060649139839190611d83565b82600a14156115bc576112dd6040518060400160405280600381526020016219d95d60ea1b8152506040518060a001604052806064815260200161336460649139839190611d83565b82600b1415611605576112dd6040518060400160405280600381526020016219d95d60ea1b8152506040518060a0016040528060648152602001612fb760649139839190611d83565b82600c141561164e576112dd6040518060400160405280600381526020016219d95d60ea1b8152506040518060a001604052806065815260200161310660659139839190611d83565b82600d1415611697576116976040518060400160405280600381526020016219d95d60ea1b8152506040518060a001604052806065815260200161323460659139839190611d83565b6116f1604051806040016040528060048152602001630e0c2e8d60e31b815250604051806040016040528060118152602001707365726965732e302e646174612e302e3160781b81525083611d839092919063ffffffff16565b601d54601f5461170c916001600160a01b0316908390611dbf565b9392505050565b61171b611dde565b6001600160a01b031661172c610ec8565b6001600160a01b0316146117525760405162461bcd60e51b8152600401610dd190612c27565b6001600160a01b0381166117785760405162461bcd60e51b8152600401610dd190612b6f565b61178181611de2565b50565b600d5481565b611792611dde565b6001600160a01b03166117a3610ec8565b6001600160a01b0316146117c95760405162461bcd60e51b8152600401610dd190612c27565b600c54602354600b546040516371d4ed8d60e11b81526001600160a01b03600160401b90930483169263e3a9db1a92611807929116906004016129fb565b60206040518083038186803b15801561181f57600080fd5b505afa158015611833573d6000803e3d6000fd5b505050506040513d601f19601f820116820180604052508101906118579190612917565b1015610d595760405162461bcd60e51b8152600401610dd190612bf8565b60008281526006602052604090205482906001600160a01b031633146118ad5760405162461bcd60e51b8152600401610dd190612c5c565b60008181526006602052604080822080546001600160a01b03191690555182917f7cc135e0cebb02c3480ae5d74d377283180a2601f8f644edf7987b009316c63a91a260006118fb83610edd565b9050606061192282604051806040016040528060018152602001600b60fa1b815250611e32565b60008681526018602052604081205482519293506001600160a01b031691819081908190611975908790839061196857634e487b7160e01b600052603260045260246000fd5b602002602001015161059d565b935061199b8660018151811061196857634e487b7160e01b600052603260045260246000fd5b92506119c18660028151811061196857634e487b7160e01b600052603260045260246000fd5b91506119e78660038151811061196857634e487b7160e01b600052603260045260246000fd5b90506001600160a01b038516611a0f5760405162461bcd60e51b8152600401610dd190612b46565b6001600160a01b03851660009081526011602090815260408083208151608081018352888152808401888152928101878152606082018781528354600181810186559488529686902092516004909702909201958655925191850191909155905160028401555160039092019190915554600e54611a8d9043612e0a565b1115611d49576000611a9f600061127f565b9050600060075460ff166003811115611ac857634e487b7160e01b600052602160045260246000fd5b1415611adb575050505050505050610a69565b60008052601460205260008051602061301b8339815191525480611b0757505050505050505050610a69565b60085460008052601460205260008051602061301b833981519152611b2d600184612e0a565b81548110611b4b57634e487b7160e01b600052603260045260246000fd5b90600052602060002001541115611d46576001600160a01b03871660009081526013602052604081205460ff166003811115611b9757634e487b7160e01b600052602160045260246000fd5b14611d46576001600160a01b03871660009081526011602052604090205480611bc95750505050505050505050610a69565b6009546001600160a01b0389166000908152601160205260409020611bef600184612e0a565b81548110611c0d57634e487b7160e01b600052603260045260246000fd5b90600052602060002090600402016002015411158015611c815750600a546001600160a01b0389166000908152601160205260409020611c4e600184612e0a565b81548110611c6c57634e487b7160e01b600052603260045260246000fd5b90600052602060002090600402016003015410155b15611cfb576001600160a01b0388166000908152601760205260408120805491611caa83612e21565b90915550506001600160a01b0388166000818152601560209081526040808320805460018181018355918552838520015592825260169052908120805491611cf183612e21565b9190505550611d44565b6001600160a01b038816600081815260156020908152604080832080546001810182559084528284200183905592825260169052908120805491611d3e83612e21565b91905055505b505b50505b505043600e819055600f555050505050505050565b611d6661269e565b611d6e61269e565b611d7a8186868661206e565b95945050505050565b6080830151611d9290836120ab565b6080830151610a6990826120ab565b6080830151611db090836120ab565b6080830151610a6990826120c2565b6000611dd684848460016320214ca360e11b6120d2565b949350505050565b3390565b600080546001600160a01b038381166001600160a01b0319831681178455604051919092169283917f8be0079c531659141344cd1fd0a4f28419497f9722a3daafe3b4186f6b6457e09190a35050565b606082600060015b60018351611e489190612e0a565b821015611e8f576000611e5c87878561228d565b9050806000191415611e6e5750611e8f565b81611e7881612e21565b9250611e879050816001612cbf565b925050611e3a565b8067ffffffffffffffff811115611eb657634e487b7160e01b600052604160045260246000fd5b604051908082528060200260200182016040528015611ee957816020015b6060815260200190600190039081611ed45790505b50935060009150600090505b60018351611f039190612e0a565b821015612064576000611f1787878561228d565b9050806000191415611f27575082515b6000611f338483612e0a565b67ffffffffffffffff811115611f5957634e487b7160e01b600052604160045260246000fd5b6040519080825280601f01601f191660200182016040528015611f83576020820181803683370190505b509050806000855b8481101561201657878181518110611fb357634e487b7160e01b600052603260045260246000fd5b01602001516001600160f81b0319168383611fcd81612e21565b945081518110611fed57634e487b7160e01b600052603260045260246000fd5b60200101906001600160f81b031916908160001a9053508061200e81612e21565b915050611f8b565b50612022846001612cbf565b955081888661203081612e21565b97508151811061205057634e487b7160e01b600052603260045260246000fd5b602002602001018190525050505050611ef5565b5050505b92915050565b61207661269e565b6120868560800151610100612353565b50509183526001600160a01b031660208301526001600160e01b031916604082015290565b6120b882600383516123ab565b610a698282612485565b6120ce826000836123ab565b5050565b6000306005546040516020016120e99291906129d9565b60408051808303601f19018152918152815160209283012060055460608901526000818152600690935281832080546001600160a01b0319166001600160a01b038b16179055905190925082917fb5e6e01e79f91267dc17b4e6314d5d4d03593d2ceee0fbb452b750bd70ea5af991a2600082600080886000015189602001518a604001518b606001518a8d6080015160000151604051602401612194989796959493929190612a0f565b60408051601f198184030181529181526020820180516001600160e01b03166001600160e01b0319909416939093179092526003549151630200057560e51b81529092506001600160a01b0390911690634000aea0906121fc908a9089908690600401612a77565b602060405180830381600087803b15801561221657600080fd5b505af115801561222a573d6000803e3d6000fd5b505050506040513d601f19601f8201168201806040525081019061224e91906127b0565b61226a5760405162461bcd60e51b8152600401610dd190612bb5565b60016005600082825461227d9190612cbf565b9091555091979650505050505050565b8151600090849084906001146122b357634e487b7160e01b600052600160045260246000fd5b835b825181101561234557816000815181106122df57634e487b7160e01b600052603260045260246000fd5b602001015160f81c60f81b6001600160f81b03191683828151811061231457634e487b7160e01b600052603260045260246000fd5b01602001516001600160f81b031916141561233357925061170c915050565b8061233d81612e21565b9150506122b5565b506000199695505050505050565b61235b6126d3565b612366602083612e3c565b1561238e57612376602083612e3c565b612381906020612e0a565b61238b9083612cbf565b91505b506020828101829052604080518085526000815290920101905290565b601781116123cc576123c68360e0600585901b16831761249f565b50610a69565b60ff81116123f6576123e9836018611fe0600586901b161761249f565b506123c6838260016124b7565b61ffff811161242157612414836019611fe0600586901b161761249f565b506123c6838260026124b7565b63ffffffff811161244e5761244183601a611fe0600586901b161761249f565b506123c6838260046124b7565b67ffffffffffffffff8111610a695761247283601b611fe0600586901b161761249f565b5061247f838260086124b7565b50505050565b61248d6126d3565b61170c838460000151518485516124d0565b6124a76126d3565b61170c83846000015151846125ad565b6124bf6126d3565b611dd68485600001515185856125fc565b6124d86126d3565b82518211156124e657600080fd5b60208501516124f58386612cbf565b11156125285761252885612518876020015187866125139190612cbf565b612670565b612523906002612deb565b612687565b6000808651805187602083010193508088870111156125475787860182525b505050602084015b602084106125875780518252612566602083612cbf565b9150612573602082612cbf565b9050612580602085612e0a565b935061254f565b51815160001960208690036101000a019081169019919091161790525083949350505050565b6125b56126d3565b836020015183106125d5576125d584856020015160026125239190612deb565b8351805160208583010184815350808514156125f2576001810182525b5093949350505050565b6126046126d3565b60208501516126138584612cbf565b111561262757612627856125188685612cbf565b6000600161263784610100612d1d565b6126419190612e0a565b90508551838682010185831982511617815250805184870111156126655783860181525b509495945050505050565b600081831115612681575081612068565b50919050565b81516126938383612353565b5061247f8382612485565b6040805160a0810182526000808252602082018190529181018290526060810191909152608081016126ce6126d3565b905290565b604051806040016040528060608152602001600081525090565b80356001600160a01b038116811461069357600080fd5b803560ff8116811461069357600080fd5b600060208284031215612726578081fd5b61170c826126ed565b60008060008060808587031215612744578283fd5b61274d856126ed565b9350602085013560038110612760578384fd5b925061276e60408601612704565b915061277c60608601612704565b905092959194509250565b60008060408385031215612799578182fd5b6127a2836126ed565b946020939093013593505050565b6000602082840312156127c1578081fd5b8151801515811461170c578182fd5b6000602082840312156127e1578081fd5b5035919050565b600080604083850312156127fa578182fd5b50508035926020909101359150565b6000806020838503121561281b578182fd5b823567ffffffffffffffff80821115612832578384fd5b818501915085601f830112612845578384fd5b813581811115612853578485fd5b866020828501011115612864578485fd5b60209290920196919550909350505050565b60006020808385031215612888578182fd5b823567ffffffffffffffff8082111561289f578384fd5b818501915085601f8301126128b2578384fd5b8135818111156128c4576128c4612e72565b604051601f8201601f19168101850183811182821017156128e7576128e7612e72565b60405281815283820185018810156128fd578586fd5b818585018683013790810190930193909352509392505050565b600060208284031215612928578081fd5b5051919050565b60008060408385031215612941578182fd5b82359150612951602084016126ed565b90509250929050565b60008060006060848603121561296e578283fd5b505081359360208301359350604090920135919050565b60008151808452815b818110156129aa5760208185018101518683018201520161298e565b818111156129bb5782602083870101525b50601f01601f19169290920160200192915050565b90815260200190565b60609290921b6bffffffffffffffffffffffff19168252601482015260340190565b6001600160a01b0391909116815260200190565b6001600160a01b0389811682526020820189905260408201889052861660608201526001600160e01b03198516608082015260a0810184905260c0810183905261010060e08201819052600090612a6883820185612985565b9b9a5050505050505050505050565b600060018060a01b038516825283602083015260606040830152611d7a6060830184612985565b6020808252825182820181905260009190848201906040850190845b81811015612ad657835183529284019291840191600101612aba565b50909695505050505050565b6000831515825260406020830152611dd66040830184612985565b6020810160048310612b1f57634e487b7160e01b600052602160045260246000fd5b91905290565b60079190910b815260200190565b60006020825261170c6020830184612985565b6020808252600f908201526e496e76616c6964206164647265737360881b604082015260600190565b60208082526026908201527f4f776e61626c653a206e6577206f776e657220697320746865207a65726f206160408201526564647265737360d01b606082015260800190565b60208082526023908201527f756e61626c6520746f207472616e73666572416e6443616c6c20746f206f7261604082015262636c6560e81b606082015260800190565b6020808252601590820152742732b2b2103a3790333ab7321031b0b6b830b4b3b760591b604082015260600190565b6020808252818101527f4f776e61626c653a2063616c6c6572206973206e6f7420746865206f776e6572604082015260600190565b60208082526028908201527f536f75726365206d75737420626520746865206f7261636c65206f6620746865604082015267081c995c5d595cdd60c21b606082015260800190565b93845260208401929092526040830152606082015260800190565b60008219821115612cd257612cd2612e5c565b500190565b80825b6001808611612ce95750612d14565b818704821115612cfb57612cfb612e5c565b80861615612d0857918102915b9490941c938002612cda565b94509492505050565b600061170c6000198484600082612d365750600161170c565b81612d435750600061170c565b8160018114612d595760028114612d6357612d90565b600191505061170c565b60ff841115612d7457612d74612e5c565b6001841b915084821115612d8a57612d8a612e5c565b5061170c565b5060208310610133831016604e8410600b8410161715612dc3575081810a83811115612dbe57612dbe612e5c565b61170c565b612dd08484846001612cd7565b808604821115612de257612de2612e5c565b02949350505050565b6000816000190483118215151615612e0557612e05612e5c565b500290565b600082821015612e1c57612e1c612e5c565b500390565b6000600019821415612e3557612e35612e5c565b5060010190565b600082612e5757634e487b7160e01b81526012600452602481fd5b500690565b634e487b7160e01b600052601160045260246000fd5b634e487b7160e01b600052604160045260246000fdfe68747470733a2f2f6170692e6569612e676f762f7365726965732f3f7365726965735f69643d4542412e4e592d414c4c2e442e484c266170695f6b65793d3462393734373030393462663563623066623265306264303263373736383337266e756d3d3168747470733a2f2f6170692e6569612e676f762f7365726965732f3f7365726965735f69643d4542412e4e452d414c4c2e442e484c266170695f6b65793d3462393734373030393462663563623066623265306264303263373736383337266e756d3d3168747470733a2f2f6170692e6569612e676f762f7365726965732f3f7365726965735f69643d4542412e43454e542d414c4c2e442e484c266170695f6b65793d3462393734373030393462663563623066623265306264303263373736383337266e756d3d3168747470733a2f2f6170692e6569612e676f762f7365726965732f3f7365726965735f69643d4542412e53572d414c4c2e442e484c266170695f6b65793d3462393734373030393462663563623066623265306264303263373736383337266e756d3d314f26c3876aa9f4b92579780beea1161a61f87ebf1ec6ee865b299e447ecba99c68747470733a2f2f6170692e6569612e676f762f7365726965732f3f7365726965735f69643d4542412e464c412d414c4c2e442e484c266170695f6b65793d3462393734373030393462663563623066623265306264303263373736383337266e756d3d3168747470733a2f2f6170692e6569612e676f762f7365726965732f3f7365726965735f69643d4542412e4d4944572d414c4c2e442e484c266170695f6b65793d3462393734373030393462663563623066623265306264303263373736383337266e756d3d3168747470733a2f2f6170692e6569612e676f762f7365726965732f3f7365726965735f69643d4542412e54454e2d414c4c2e442e484c266170695f6b65793d3462393734373030393462663563623066623265306264303263373736383337266e756d3d3168747470733a2f2f6170692e6569612e676f762f7365726965732f3f7365726965735f69643d4542412e43414c2d414c4c2e442e484c266170695f6b65793d3665623461393031313738393433343232643039386630346430323562653863266e756d3d3168747470733a2f2f6170692e6569612e676f762f7365726965732f3f7365726965735f69643d4542412e4e572d414c4c2e442e484c266170695f6b65793d3462393734373030393462663563623066623265306264303263373736383337266e756d3d3168747470733a2f2f6170692e6569612e676f762f7365726965732f3f7365726965735f69643d4542412e5445582d414c4c2e442e484c266170695f6b65793d3462393734373030393462663563623066623265306264303263373736383337266e756d3d3168747470733a2f2f6170692e6569612e676f762f7365726965732f3f7365726965735f69643d4542412e4d4944412d414c4c2e442e484c266170695f6b65793d3462393734373030393462663563623066623265306264303263373736383337266e756d3d3168747470733a2f2f6170692e6569612e676f762f7365726965732f3f7365726965735f69643d4542412e4341522d414c4c2e442e484c266170695f6b65793d3462393734373030393462663563623066623265306264303263373736383337266e756d3d3168747470733a2f2f6170692e6569612e676f762f7365726965732f3f7365726965735f69643d4542412e53452d414c4c2e442e484c266170695f6b65793d3462393734373030393462663563623066623265306264303263373736383337266e756d3d31a264697066735822122087b59a0283f748ccddba725ebd4563ac857f2b5cfcf06079230ec5ecead9dc0864736f6c63430008000033608060405234801561001057600080fd5b5061002161001c610026565b61002a565b61007a565b3390565b600080546001600160a01b038381166001600160a01b0319831681178455604051919092169283917f8be0079c531659141344cd1fd0a4f28419497f9722a3daafe3b4186f6b6457e09190a35050565b610616806100896000396000f3fe6080604052600436106100555760003560e01c806351cff8d91461005a578063715018a61461007c5780638da5cb5b14610091578063e3a9db1a146100bc578063f2fde38b146100e9578063f340fa0114610109575b600080fd5b34801561006657600080fd5b5061007a610075366004610455565b61011c565b005b34801561008857600080fd5b5061007a6101d1565b34801561009d57600080fd5b506100a661021c565b6040516100b3919061047b565b60405180910390f35b3480156100c857600080fd5b506100dc6100d7366004610455565b61022b565b6040516100b3919061059e565b3480156100f557600080fd5b5061007a610104366004610455565b610246565b61007a610117366004610455565b6102b7565b610124610360565b6001600160a01b031661013561021c565b6001600160a01b0316146101645760405162461bcd60e51b815260040161015b90610569565b60405180910390fd5b6001600160a01b038116600081815260016020526040812080549190559061018c9082610364565b816001600160a01b03167f7084f5476618d8e60b11ef0d7d3f06914655adb8793e28ff7f018d4c76d505d5826040516101c5919061059e565b60405180910390a25050565b6101d9610360565b6001600160a01b03166101ea61021c565b6001600160a01b0316146102105760405162461bcd60e51b815260040161015b90610569565b61021a6000610405565b565b6000546001600160a01b031690565b6001600160a01b031660009081526001602052604090205490565b61024e610360565b6001600160a01b031661025f61021c565b6001600160a01b0316146102855760405162461bcd60e51b815260040161015b90610569565b6001600160a01b0381166102ab5760405162461bcd60e51b815260040161015b9061048f565b6102b481610405565b50565b6102bf610360565b6001600160a01b03166102d061021c565b6001600160a01b0316146102f65760405162461bcd60e51b815260040161015b90610569565b6001600160a01b0381166000908152600160205260408120805434928392916103209084906105a7565b92505081905550816001600160a01b03167f2da466a7b24304f47e87fa2e1e5a81b9831ce54fec19055ce277ca2f39ba42c4826040516101c5919061059e565b3390565b804710156103845760405162461bcd60e51b815260040161015b90610532565b6000826001600160a01b03168260405161039d90610478565b60006040518083038185875af1925050503d80600081146103da576040519150601f19603f3d011682016040523d82523d6000602084013e6103df565b606091505b50509050806104005760405162461bcd60e51b815260040161015b906104d5565b505050565b600080546001600160a01b038381166001600160a01b0319831681178455604051919092169283917f8be0079c531659141344cd1fd0a4f28419497f9722a3daafe3b4186f6b6457e09190a35050565b600060208284031215610466578081fd5b8135610471816105cb565b9392505050565b90565b6001600160a01b0391909116815260200190565b60208082526026908201527f4f776e61626c653a206e6577206f776e657220697320746865207a65726f206160408201526564647265737360d01b606082015260800190565b6020808252603a908201527f416464726573733a20756e61626c6520746f2073656e642076616c75652c207260408201527f6563697069656e74206d61792068617665207265766572746564000000000000606082015260800190565b6020808252601d908201527f416464726573733a20696e73756666696369656e742062616c616e6365000000604082015260600190565b6020808252818101527f4f776e61626c653a2063616c6c6572206973206e6f7420746865206f776e6572604082015260600190565b90815260200190565b600082198211156105c657634e487b7160e01b81526011600452602481fd5b500190565b6001600160a01b03811681146102b457600080fdfea264697066735822122023a5494ecdbbac557b99b99cdf164e867f11e47979ab03d5a957ef16fc443cc164736f6c63430008000033a2646970667358221220bc21b07ac2380d162750015da298306fb455707787f1f65c23aa1ebca7f69b7e64736f6c63430008000033",
  "linkReferences": {},
  "deployedLinkReferences": {}
}