{
  "_format": "hh-sol-artifact-1",
  "contractName": "EIAAPIConsumer",
  "sourceName": "contracts/APIConsumerEIA.sol",
  "abi": [
    {
      "inputs": [],
      "stateMutability": "nonpayable",
      "type": "constructor"
    },
    {
      "anonymous": false,
      "inputs": [
        {
          "indexed": true,
          "internalType": "bytes32",
          "name": "id",
          "type": "bytes32"
        }
      ],
      "name": "ChainlinkCancelled",
      "type": "event"
    },
    {
      "anonymous": false,
      "inputs": [
        {
          "indexed": true,
          "internalType": "bytes32",
          "name": "id",
          "type": "bytes32"
        }
      ],
      "name": "ChainlinkFulfilled",
      "type": "event"
    },
    {
      "anonymous": false,
      "inputs": [
        {
          "indexed": true,
          "internalType": "bytes32",
          "name": "id",
          "type": "bytes32"
        }
      ],
      "name": "ChainlinkRequested",
      "type": "event"
    },
    {
      "inputs": [
        {
          "internalType": "bytes32",
          "name": "_requestId",
          "type": "bytes32"
        },
        {
          "internalType": "uint256",
          "name": "_volume",
          "type": "uint256"
        }
      ],
      "name": "fulfill",
      "outputs": [],
      "stateMutability": "nonpayable",
      "type": "function"
    },
    {
      "inputs": [
        {
          "internalType": "uint256",
          "name": "region_num",
          "type": "uint256"
        }
      ],
      "name": "requestDemandData",
      "outputs": [
        {
          "internalType": "bytes32",
          "name": "requestId",
          "type": "bytes32"
        }
      ],
      "stateMutability": "nonpayable",
      "type": "function"
    },
    {
      "inputs": [],
      "name": "volume",
      "outputs": [
        {
          "internalType": "uint256",
          "name": "",
          "type": "uint256"
        }
      ],
      "stateMutability": "view",
      "type": "function"
    }
  ],
  "bytecode": "0x6080604052600160045534801561001557600080fd5b5061001e610079565b600780546001600160a01b03191673c57b33452b4f7bb189bb5afae9cc4aba1f7a4fd81790557f643532373064316333313139343164306230386265616432316665613737343760085567016345785d8a0000600955610158565b61010673c89bd4e1632d3a43cb03aaad5262cbe4038bc5716001600160a01b03166338cc48316040518163ffffffff1660e01b815260040160206040518083038186803b1580156100c957600080fd5b505afa1580156100dd573d6000803e3d6000fd5b505050506040513d601f19601f82011682018060405250810190610101919061012a565b610108565b565b600280546001600160a01b0319166001600160a01b0392909216919091179055565b60006020828403121561013b578081fd5b81516001600160a01b0381168114610151578182fd5b9392505050565b611458806101676000396000f3fe608060405234801561001057600080fd5b50600436106100415760003560e01c80634357855e14610046578063550a121f1461005b578063c618a1e414610084575b600080fd5b610059610054366004610ba2565b61008c565b005b61006e610069366004610bc3565b610117565b60405161007b9190610cd7565b60405180910390f35b61006e610566565b60008281526005602052604090205482906001600160a01b031633146100cd5760405162461bcd60e51b81526004016100c490610d23565b60405180910390fd5b60008181526005602052604080822080546001600160a01b03191690555182917f7cc135e0cebb02c3480ae5d74d377283180a2601f8f644edf7987b009316c63a91a25060065550565b60008061012e60085430634357855e60e01b61056c565b9050826001141561017e576101796040518060400160405280600381526020016219d95d60ea1b8152506040518060a00160405280606581526020016110fb60659139839190610591565b6104ea565b82600214156101c7576101796040518060400160405280600381526020016219d95d60ea1b8152506040518060a001604052806065815260200161135a60659139839190610591565b8260031415610210576101796040518060400160405280600381526020016219d95d60ea1b8152506040518060a0016040528060668152602001610fcc60669139839190610591565b8260041415610259576101796040518060400160405280600381526020016219d95d60ea1b8152506040518060a001604052806065815260200161109660659139839190610591565b82600514156102a2576101796040518060400160405280600381526020016219d95d60ea1b8152506040518060a00160405280606681526020016112f460669139839190610591565b82600614156102eb576101796040518060400160405280600381526020016219d95d60ea1b8152506040518060a001604052806066815260200161116060669139839190610591565b8260071415610334576101796040518060400160405280600381526020016219d95d60ea1b8152506040518060a0016040528060648152602001610f6860649139839190610591565b826008141561037d576101796040518060400160405280600381526020016219d95d60ea1b8152506040518060a0016040528060648152602001610f0460649139839190610591565b82600914156103c6576101796040518060400160405280600381526020016219d95d60ea1b8152506040518060a001604052806064815260200161122b60649139839190610591565b82600a141561040f576101796040518060400160405280600381526020016219d95d60ea1b8152506040518060a00160405280606481526020016113bf60649139839190610591565b82600b1415610458576101796040518060400160405280600381526020016219d95d60ea1b8152506040518060a001604052806064815260200161103260649139839190610591565b82600c14156104a1576101796040518060400160405280600381526020016219d95d60ea1b8152506040518060a00160405280606581526020016111c660659139839190610591565b82600d14156104ea576104ea6040518060400160405280600381526020016219d95d60ea1b8152506040518060a001604052806065815260200161128f60659139839190610591565b610544604051806040016040528060048152602001630e0c2e8d60e31b815250604051806040016040528060118152602001707365726965732e302e646174612e302e3160781b815250836105919092919063ffffffff16565b60075460095461055f916001600160a01b03169083906105b4565b9392505050565b60065481565b610574610b33565b61057c610b33565b610588818686866105d3565b95945050505050565b60808301516105a09083610610565b60808301516105af9082610610565b505050565b60006105cb84848460016320214ca360e11b610627565b949350505050565b6105db610b33565b6105eb85608001516101006107e2565b50509183526001600160a01b031660208301526001600160e01b031916604082015290565b61061d8260038351610840565b6105af828261091a565b60003060045460405160200161063e929190610c26565b60408051808303601f19018152918152815160209283012060045460608901526000818152600590935281832080546001600160a01b0319166001600160a01b038b16179055905190925082917fb5e6e01e79f91267dc17b4e6314d5d4d03593d2ceee0fbb452b750bd70ea5af991a2600082600080886000015189602001518a604001518b606001518a8d60800151600001516040516024016106e9989796959493929190610c48565b60408051601f198184030181529181526020820180516001600160e01b03166001600160e01b0319909416939093179092526002549151630200057560e51b81529092506001600160a01b0390911690634000aea090610751908a9089908690600401610cb0565b602060405180830381600087803b15801561076b57600080fd5b505af115801561077f573d6000803e3d6000fd5b505050506040513d601f19601f820116820180604052508101906107a39190610b82565b6107bf5760405162461bcd60e51b81526004016100c490610ce0565b6001600460008282546107d29190610d6b565b9091555091979650505050505050565b6107ea610b68565b6107f5602083610ecd565b1561081d57610805602083610ecd565b610810906020610eb6565b61081a9083610d6b565b91505b506020808301829052604080518085526000815283019091019052815b92915050565b601781116108615761085b8360e0600585901b168317610934565b506105af565b60ff811161088b5761087e836018611fe0600586901b1617610934565b5061085b8382600161094c565b61ffff81116108b6576108a9836019611fe0600586901b1617610934565b5061085b8382600261094c565b63ffffffff81116108e3576108d683601a611fe0600586901b1617610934565b5061085b8382600461094c565b67ffffffffffffffff81116105af5761090783601b611fe0600586901b1617610934565b506109148382600861094c565b50505050565b610922610b68565b61055f83846000015151848551610965565b61093c610b68565b61055f8384600001515184610a42565b610954610b68565b6105cb848560000151518585610a91565b61096d610b68565b825182111561097b57600080fd5b602085015161098a8386610d6b565b11156109bd576109bd856109ad876020015187866109a89190610d6b565b610b05565b6109b8906002610e97565b610b1c565b6000808651805187602083010193508088870111156109dc5787860182525b505050602084015b60208410610a1c57805182526109fb602083610d6b565b9150610a08602082610d6b565b9050610a15602085610eb6565b93506109e4565b51815160001960208690036101000a019081169019919091161790525083949350505050565b610a4a610b68565b83602001518310610a6a57610a6a84856020015160026109b89190610e97565b835180516020858301018481535080851415610a87576001810182525b5093949350505050565b610a99610b68565b6020850151610aa88584610d6b565b1115610abc57610abc856109ad8685610d6b565b60006001610acc84610100610dc9565b610ad69190610eb6565b9050855183868201018583198251161781525080518487011115610afa5783860181525b509495945050505050565b600081831115610b1657508161083a565b50919050565b8151610b2883836107e2565b50610914838261091a565b6040805160a081018252600080825260208201819052918101829052606081019190915260808101610b63610b68565b905290565b604051806040016040528060608152602001600081525090565b600060208284031215610b93578081fd5b8151801515811461055f578182fd5b60008060408385031215610bb4578081fd5b50508035926020909101359150565b600060208284031215610bd4578081fd5b5035919050565b60008151808452815b81811015610c0057602081850181015186830182015201610be4565b81811115610c115782602083870101525b50601f01601f19169290920160200192915050565b60609290921b6bffffffffffffffffffffffff19168252601482015260340190565b6001600160a01b0389811682526020820189905260408201889052861660608201526001600160e01b03198516608082015260a0810184905260c0810183905261010060e08201819052600090610ca183820185610bdb565b9b9a5050505050505050505050565b600060018060a01b0385168252836020830152606060408301526105886060830184610bdb565b90815260200190565b60208082526023908201527f756e61626c6520746f207472616e73666572416e6443616c6c20746f206f7261604082015262636c6560e81b606082015260800190565b60208082526028908201527f536f75726365206d75737420626520746865206f7261636c65206f6620746865604082015267081c995c5d595cdd60c21b606082015260800190565b60008219821115610d7e57610d7e610eed565b500190565b80825b6001808611610d955750610dc0565b818704821115610da757610da7610eed565b80861615610db457918102915b9490941c938002610d86565b94509492505050565b600061055f6000198484600082610de25750600161055f565b81610def5750600061055f565b8160018114610e055760028114610e0f57610e3c565b600191505061055f565b60ff841115610e2057610e20610eed565b6001841b915084821115610e3657610e36610eed565b5061055f565b5060208310610133831016604e8410600b8410161715610e6f575081810a83811115610e6a57610e6a610eed565b61055f565b610e7c8484846001610d83565b808604821115610e8e57610e8e610eed565b02949350505050565b6000816000190483118215151615610eb157610eb1610eed565b500290565b600082821015610ec857610ec8610eed565b500390565b600082610ee857634e487b7160e01b81526012600452602481fd5b500690565b634e487b7160e01b600052601160045260246000fdfe68747470733a2f2f6170692e6569612e676f762f7365726965732f3f7365726965735f69643d4542412e4e592d414c4c2e442e484c266170695f6b65793d3462393734373030393462663563623066623265306264303263373736383337266e756d3d3168747470733a2f2f6170692e6569612e676f762f7365726965732f3f7365726965735f69643d4542412e4e452d414c4c2e442e484c266170695f6b65793d3462393734373030393462663563623066623265306264303263373736383337266e756d3d3168747470733a2f2f6170692e6569612e676f762f7365726965732f3f7365726965735f69643d4542412e43454e542d414c4c2e442e484c266170695f6b65793d3462393734373030393462663563623066623265306264303263373736383337266e756d3d3168747470733a2f2f6170692e6569612e676f762f7365726965732f3f7365726965735f69643d4542412e53572d414c4c2e442e484c266170695f6b65793d3462393734373030393462663563623066623265306264303263373736383337266e756d3d3168747470733a2f2f6170692e6569612e676f762f7365726965732f3f7365726965735f69643d4542412e464c412d414c4c2e442e484c266170695f6b65793d3462393734373030393462663563623066623265306264303263373736383337266e756d3d3168747470733a2f2f6170692e6569612e676f762f7365726965732f3f7365726965735f69643d4542412e43414c2d414c4c2e442e484c266170695f6b65793d3462393734373030393462663563623066623265306264303263373736383337266e756d3d3168747470733a2f2f6170692e6569612e676f762f7365726965732f3f7365726965735f69643d4542412e4d4944572d414c4c2e442e484c266170695f6b65793d3462393734373030393462663563623066623265306264303263373736383337266e756d3d3168747470733a2f2f6170692e6569612e676f762f7365726965732f3f7365726965735f69643d4542412e54454e2d414c4c2e442e484c266170695f6b65793d3462393734373030393462663563623066623265306264303263373736383337266e756d3d3168747470733a2f2f6170692e6569612e676f762f7365726965732f3f7365726965735f69643d4542412e4e572d414c4c2e442e484c266170695f6b65793d3462393734373030393462663563623066623265306264303263373736383337266e756d3d3168747470733a2f2f6170692e6569612e676f762f7365726965732f3f7365726965735f69643d4542412e5445582d414c4c2e442e484c266170695f6b65793d3462393734373030393462663563623066623265306264303263373736383337266e756d3d3168747470733a2f2f6170692e6569612e676f762f7365726965732f3f7365726965735f69643d4542412e4d4944412d414c4c2e442e484c266170695f6b65793d3462393734373030393462663563623066623265306264303263373736383337266e756d3d3168747470733a2f2f6170692e6569612e676f762f7365726965732f3f7365726965735f69643d4542412e4341522d414c4c2e442e484c266170695f6b65793d3462393734373030393462663563623066623265306264303263373736383337266e756d3d3168747470733a2f2f6170692e6569612e676f762f7365726965732f3f7365726965735f69643d4542412e53452d414c4c2e442e484c266170695f6b65793d3462393734373030393462663563623066623265306264303263373736383337266e756d3d31a2646970667358221220bf4907456a7e4200dd2605d1e4a464f3d3e00b1533711840a2f77f80b55bc08464736f6c63430008000033",
  "linkReferences": {},
  "deployedLinkReferences": {}
}